{
  "contractName": "WalmartPaymentSystem",
  "abi": [
    {
      "inputs": [],
      "stateMutability": "nonpayable",
      "type": "constructor"
    },
    {
      "inputs": [
        {
          "internalType": "address",
          "name": "",
          "type": "address"
        }
      ],
      "name": "walmartTransections",
      "outputs": [
        {
          "internalType": "string",
          "name": "dateOfTransection",
          "type": "string"
        },
        {
          "internalType": "string",
          "name": "transectionPerformedBy",
          "type": "string"
        },
        {
          "internalType": "uint256",
          "name": "totalAmountPayed",
          "type": "uint256"
        },
        {
          "components": [
            {
              "internalType": "string",
              "name": "productName",
              "type": "string"
            },
            {
              "internalType": "string",
              "name": "productID",
              "type": "string"
            },
            {
              "internalType": "string",
              "name": "uri",
              "type": "string"
            },
            {
              "components": [
                {
                  "internalType": "string",
                  "name": "storeType",
                  "type": "string"
                },
                {
                  "internalType": "string",
                  "name": "storeName",
                  "type": "string"
                },
                {
                  "internalType": "string",
                  "name": "storeId",
                  "type": "string"
                }
              ],
              "internalType": "struct WalmartPaymentSystem.Store",
              "name": "store",
              "type": "tuple"
            }
          ],
          "internalType": "struct WalmartPaymentSystem.StoreProduct",
          "name": "storeProduct",
          "type": "tuple"
        }
      ],
      "stateMutability": "view",
      "type": "function",
      "constant": true
    },
    {
      "inputs": [
        {
          "internalType": "string",
          "name": "dateOfTransection",
          "type": "string"
        },
        {
          "internalType": "string",
          "name": "transectionPerformedBy",
          "type": "string"
        },
        {
          "internalType": "uint256",
          "name": "totalAmountPayed",
          "type": "uint256"
        },
        {
          "internalType": "address payable",
          "name": "OwnerAccount",
          "type": "address"
        },
        {
          "internalType": "string",
          "name": "productName",
          "type": "string"
        },
        {
          "internalType": "string",
          "name": "productID",
          "type": "string"
        },
        {
          "internalType": "string",
          "name": "productURI",
          "type": "string"
        },
        {
          "internalType": "string",
          "name": "storeType",
          "type": "string"
        },
        {
          "internalType": "string",
          "name": "storeName",
          "type": "string"
        },
        {
          "internalType": "string",
          "name": "storeId",
          "type": "string"
        }
      ],
      "name": "WalmartPaymentInEther",
      "outputs": [],
      "stateMutability": "payable",
      "type": "function",
      "payable": true
    }
  ],
  "bytecode": "0x60806040526000805534801561001457600080fd5b50610f76806100246000396000f3fe6080604052600436106100295760003560e01c8063513ce1711461002e5780636f42d5881461006e575b600080fd5b34801561003a57600080fd5b506100556004803603810190610050919061091c565b61008a565b6040516100659493929190610c37565b60405180910390f35b61008860048036038101906100839190610945565b610554565b005b60016020528060005260406000206000915090508060000180546100ad90610dfa565b80601f01602080910402602001604051908101604052809291908181526020018280546100d990610dfa565b80156101265780601f106100fb57610100808354040283529160200191610126565b820191906000526020600020905b81548152906001019060200180831161010957829003601f168201915b50505050509080600101805461013b90610dfa565b80601f016020809104026020016040519081016040528092919081815260200182805461016790610dfa565b80156101b45780601f10610189576101008083540402835291602001916101b4565b820191906000526020600020905b81548152906001019060200180831161019757829003601f168201915b505050505090806002015490806003016040518060800160405290816000820180546101df90610dfa565b80601f016020809104026020016040519081016040528092919081815260200182805461020b90610dfa565b80156102585780601f1061022d57610100808354040283529160200191610258565b820191906000526020600020905b81548152906001019060200180831161023b57829003601f168201915b5050505050815260200160018201805461027190610dfa565b80601f016020809104026020016040519081016040528092919081815260200182805461029d90610dfa565b80156102ea5780601f106102bf576101008083540402835291602001916102ea565b820191906000526020600020905b8154815290600101906020018083116102cd57829003601f168201915b5050505050815260200160028201805461030390610dfa565b80601f016020809104026020016040519081016040528092919081815260200182805461032f90610dfa565b801561037c5780601f106103515761010080835404028352916020019161037c565b820191906000526020600020905b81548152906001019060200180831161035f57829003601f168201915b50505050508152602001600382016040518060600160405290816000820180546103a590610dfa565b80601f01602080910402602001604051908101604052809291908181526020018280546103d190610dfa565b801561041e5780601f106103f35761010080835404028352916020019161041e565b820191906000526020600020905b81548152906001019060200180831161040157829003601f168201915b5050505050815260200160018201805461043790610dfa565b80601f016020809104026020016040519081016040528092919081815260200182805461046390610dfa565b80156104b05780601f10610485576101008083540402835291602001916104b0565b820191906000526020600020905b81548152906001019060200180831161049357829003601f168201915b505050505081526020016002820180546104c990610dfa565b80601f01602080910402602001604051908101604052809291908181526020018280546104f590610dfa565b80156105425780601f1061051757610100808354040283529160200191610542565b820191906000526020600020905b81548152906001019060200180831161052557829003601f168201915b50505050508152505081525050905084565b87341461056057600080fd5b600086511161056e57600080fd5b600085511161057c57600080fd5b600082511161058a57600080fd5b600081511161059857600080fd5b60008a51116105a657600080fd5b60008951116105b457600080fd5b6000604051806060016040528085815260200184815260200183815250905060006040518060800160405280898152602001888152602001878152602001838152509050600060405180608001604052808e81526020018d81526020018c815260200183815250905080600160003373ffffffffffffffffffffffffffffffffffffffff1673ffffffffffffffffffffffffffffffffffffffff16815260200190815260200160002060008201518160000190805190602001906106799291906107d2565b5060208201518160010190805190602001906106969291906107d2565b506040820151816002015560608201518160030160008201518160000190805190602001906106c69291906107d2565b5060208201518160010190805190602001906106e39291906107d2565b5060408201518160020190805190602001906107009291906107d2565b5060608201518160030160008201518160000190805190602001906107269291906107d2565b5060208201518160010190805190602001906107439291906107d2565b5060408201518160020190805190602001906107609291906107d2565b50505050509050508a6000546107769190610d14565b6000819055508973ffffffffffffffffffffffffffffffffffffffff166108fc8c9081150290604051600060405180830381858888f193505050501580156107c2573d6000803e3d6000fd5b5050505050505050505050505050565b8280546107de90610dfa565b90600052602060002090601f0160209004810192826108005760008555610847565b82601f1061081957805160ff1916838001178555610847565b82800160010185558215610847579182015b8281111561084657825182559160200191906001019061082b565b5b5090506108549190610858565b5090565b5b80821115610871576000816000905550600101610859565b5090565b600061088861088384610cb6565b610c91565b9050828152602081018484840111156108a057600080fd5b6108ab848285610db8565b509392505050565b6000813590506108c281610efb565b92915050565b6000813590506108d781610f12565b92915050565b600082601f8301126108ee57600080fd5b81356108fe848260208601610875565b91505092915050565b60008135905061091681610f29565b92915050565b60006020828403121561092e57600080fd5b600061093c848285016108b3565b91505092915050565b6000806000806000806000806000806101408b8d03121561096557600080fd5b60008b013567ffffffffffffffff81111561097f57600080fd5b61098b8d828e016108dd565b9a505060208b013567ffffffffffffffff8111156109a857600080fd5b6109b48d828e016108dd565b99505060406109c58d828e01610907565b98505060606109d68d828e016108c8565b97505060808b013567ffffffffffffffff8111156109f357600080fd5b6109ff8d828e016108dd565b96505060a08b013567ffffffffffffffff811115610a1c57600080fd5b610a288d828e016108dd565b95505060c08b013567ffffffffffffffff811115610a4557600080fd5b610a518d828e016108dd565b94505060e08b013567ffffffffffffffff811115610a6e57600080fd5b610a7a8d828e016108dd565b9350506101008b013567ffffffffffffffff811115610a9857600080fd5b610aa48d828e016108dd565b9250506101208b013567ffffffffffffffff811115610ac257600080fd5b610ace8d828e016108dd565b9150509295989b9194979a5092959850565b6000610aeb82610ce7565b610af58185610cf2565b9350610b05818560208601610dc7565b610b0e81610eea565b840191505092915050565b6000610b2482610ce7565b610b2e8185610d03565b9350610b3e818560208601610dc7565b610b4781610eea565b840191505092915050565b60006080830160008301518482036000860152610b6f8282610ae0565b91505060208301518482036020860152610b898282610ae0565b91505060408301518482036040860152610ba38282610ae0565b91505060608301518482036060860152610bbd8282610bca565b9150508091505092915050565b60006060830160008301518482036000860152610be78282610ae0565b91505060208301518482036020860152610c018282610ae0565b91505060408301518482036040860152610c1b8282610ae0565b9150508091505092915050565b610c3181610dae565b82525050565b60006080820190508181036000830152610c518187610b19565b90508181036020830152610c658186610b19565b9050610c746040830185610c28565b8181036060830152610c868184610b52565b905095945050505050565b6000610c9b610cac565b9050610ca78282610e2c565b919050565b6000604051905090565b600067ffffffffffffffff821115610cd157610cd0610ebb565b5b610cda82610eea565b9050602081019050919050565b600081519050919050565b600082825260208201905092915050565b600082825260208201905092915050565b6000610d1f82610dae565b9150610d2a83610dae565b9250827fffffffffffffffffffffffffffffffffffffffffffffffffffffffffffffffff03821115610d5f57610d5e610e5d565b5b828201905092915050565b6000610d7582610d8e565b9050919050565b6000610d8782610d8e565b9050919050565b600073ffffffffffffffffffffffffffffffffffffffff82169050919050565b6000819050919050565b82818337600083830152505050565b60005b83811015610de5578082015181840152602081019050610dca565b83811115610df4576000848401525b50505050565b60006002820490506001821680610e1257607f821691505b60208210811415610e2657610e25610e8c565b5b50919050565b610e3582610eea565b810181811067ffffffffffffffff82111715610e5457610e53610ebb565b5b80604052505050565b7f4e487b7100000000000000000000000000000000000000000000000000000000600052601160045260246000fd5b7f4e487b7100000000000000000000000000000000000000000000000000000000600052602260045260246000fd5b7f4e487b7100000000000000000000000000000000000000000000000000000000600052604160045260246000fd5b6000601f19601f8301169050919050565b610f0481610d6a565b8114610f0f57600080fd5b50565b610f1b81610d7c565b8114610f2657600080fd5b50565b610f3281610dae565b8114610f3d57600080fd5b5056fea26469706673582212208033cc95699bea03939c11e1ad624f63fbc99af349c6f27164843e289447f3a864736f6c63430008030033",
  "immutableReferences": {},
  "source": "// SPDX-License-Identifier: MIT\npragma solidity >=0.4.22 <0.9.0;\n\ncontract WalmartPaymentSystem {\n    uint256 totalWalmartEarning = 0;\n    struct Store {\n        string storeType;\n        string storeName;\n        string storeId;\n    }\n    struct StoreProduct {\n        string productName;\n        string productID;\n        string uri;\n        Store store;\n    }\n    struct Transection {\n        string dateOfTransection;\n        string transectionPerformedBy;\n        uint256 totalAmountPayed;\n        StoreProduct storeProduct;\n    }\n\n    constructor() {}\n\n    mapping(address => Transection) public walmartTransections;\n\n    function WalmartPaymentInEther(\n        string memory dateOfTransection,\n        string memory transectionPerformedBy,\n        uint256 totalAmountPayed,\n        address payable OwnerAccount,\n        string memory productName,\n        string memory productID,\n        string memory productURI,\n        string memory storeType,\n        string memory storeName,\n        string memory storeId\n    ) external payable {\n        // Validate Transection :: =>\n        //    1) validate Amount payed\n        //    2) productName should not be empty\n        //    3) productID should not be empty\n        //    4) storeName should not be empty\n        //    5) storeId should not be empty\n        //    6) dateOfTransection should not be empty\n        //    7) transectionPerformedBy should not be empty\n\n        require(msg.value == totalAmountPayed);\n        require(bytes(productName).length > 0);\n        require(bytes(productID).length > 0);\n        require(bytes(storeName).length > 0);\n        require(bytes(storeId).length > 0);\n        require(bytes(dateOfTransection).length > 0);\n        require(bytes(transectionPerformedBy).length > 0);\n\n        // Store , Store Product , Transection objects ::=>\n        Store memory store = Store(storeType, storeName, storeId);\n        StoreProduct memory storeProduct = StoreProduct(\n            productName,\n            productID,\n            productURI,\n            store\n        );\n        Transection memory transection = Transection(\n            dateOfTransection,\n            transectionPerformedBy,\n            totalAmountPayed,\n            storeProduct\n        );\n        // Object Of transection stored in  walmartTransection in smartcontract\n        walmartTransections[msg.sender] = transection;\n\n        totalWalmartEarning = totalWalmartEarning + totalAmountPayed;\n        // Payment transfered to OwnerAccount\n        OwnerAccount.transfer(totalAmountPayed);\n    }\n}\n",
  "sourcePath": "G:\\PROJECT\\Blockchain Project\\contracts\\WalmartPaymentSystem.sol",
  "compiler": {
    "name": "solc",
    "version": "0.8.3+commit.8d00100c.Emscripten.clang"
  },
  "schemaVersion": "3.4.7",
  "updatedAt": "2022-06-14T17:26:40.327Z",
  "networkType": "ethereum",
  "devdoc": {
    "kind": "dev",
    "methods": {},
    "version": 1
  },
  "userdoc": {
    "kind": "user",
    "methods": {},
    "version": 1
  }
}