{
  "contractName": "WalmartPaymentSystem",
  "abi": [
    {
      "inputs": [],
      "stateMutability": "nonpayable",
      "type": "constructor"
    },
    {
      "inputs": [
        {
          "internalType": "address",
          "name": "",
          "type": "address"
        }
      ],
      "name": "walmartTransections",
      "outputs": [
        {
          "internalType": "string",
          "name": "dateOfTransection",
          "type": "string"
        },
        {
          "internalType": "string",
          "name": "transectionPerformedBy",
          "type": "string"
        },
        {
          "internalType": "uint256",
          "name": "totalAmountPayed",
          "type": "uint256"
        },
        {
          "components": [
            {
              "internalType": "string",
              "name": "productName",
              "type": "string"
            },
            {
              "internalType": "string",
              "name": "productID",
              "type": "string"
            },
            {
              "components": [
                {
                  "internalType": "string",
                  "name": "storeType",
                  "type": "string"
                },
                {
                  "internalType": "string",
                  "name": "storeName",
                  "type": "string"
                },
                {
                  "internalType": "string",
                  "name": "storeId",
                  "type": "string"
                }
              ],
              "internalType": "struct WalmartPaymentSystem.Store",
              "name": "store",
              "type": "tuple"
            }
          ],
          "internalType": "struct WalmartPaymentSystem.StoreProduct",
          "name": "storeProduct",
          "type": "tuple"
        }
      ],
      "stateMutability": "view",
      "type": "function",
      "constant": true
    },
    {
      "inputs": [
        {
          "internalType": "string",
          "name": "dateOfTransection",
          "type": "string"
        },
        {
          "internalType": "string",
          "name": "transectionPerformedBy",
          "type": "string"
        },
        {
          "internalType": "uint256",
          "name": "totalAmountPayed",
          "type": "uint256"
        },
        {
          "internalType": "address payable",
          "name": "OwnerAccount",
          "type": "address"
        },
        {
          "internalType": "string",
          "name": "productName",
          "type": "string"
        },
        {
          "internalType": "string",
          "name": "productID",
          "type": "string"
        },
        {
          "internalType": "string",
          "name": "storeType",
          "type": "string"
        },
        {
          "internalType": "string",
          "name": "storeName",
          "type": "string"
        },
        {
          "internalType": "string",
          "name": "storeId",
          "type": "string"
        }
      ],
      "name": "WalmartPaymentInEther",
      "outputs": [],
      "stateMutability": "payable",
      "type": "function",
      "payable": true
    }
  ],
  "bytecode": "0x60806040526000805534801561001457600080fd5b50610e79806100246000396000f3fe6080604052600436106100295760003560e01c8063513ce1711461002e578063b53935861461006e575b600080fd5b34801561003a57600080fd5b5061005560048036038101906100509190610866565b61008a565b6040516100659493929190610b3a565b60405180910390f35b6100886004803603810190610083919061088f565b6104c2565b005b60016020528060005260406000206000915090508060000180546100ad90610cfd565b80601f01602080910402602001604051908101604052809291908181526020018280546100d990610cfd565b80156101265780601f106100fb57610100808354040283529160200191610126565b820191906000526020600020905b81548152906001019060200180831161010957829003601f168201915b50505050509080600101805461013b90610cfd565b80601f016020809104026020016040519081016040528092919081815260200182805461016790610cfd565b80156101b45780601f10610189576101008083540402835291602001916101b4565b820191906000526020600020905b81548152906001019060200180831161019757829003601f168201915b505050505090806002015490806003016040518060600160405290816000820180546101df90610cfd565b80601f016020809104026020016040519081016040528092919081815260200182805461020b90610cfd565b80156102585780601f1061022d57610100808354040283529160200191610258565b820191906000526020600020905b81548152906001019060200180831161023b57829003601f168201915b5050505050815260200160018201805461027190610cfd565b80601f016020809104026020016040519081016040528092919081815260200182805461029d90610cfd565b80156102ea5780601f106102bf576101008083540402835291602001916102ea565b820191906000526020600020905b8154815290600101906020018083116102cd57829003601f168201915b505050505081526020016002820160405180606001604052908160008201805461031390610cfd565b80601f016020809104026020016040519081016040528092919081815260200182805461033f90610cfd565b801561038c5780601f106103615761010080835404028352916020019161038c565b820191906000526020600020905b81548152906001019060200180831161036f57829003601f168201915b505050505081526020016001820180546103a590610cfd565b80601f01602080910402602001604051908101604052809291908181526020018280546103d190610cfd565b801561041e5780601f106103f35761010080835404028352916020019161041e565b820191906000526020600020905b81548152906001019060200180831161040157829003601f168201915b5050505050815260200160028201805461043790610cfd565b80601f016020809104026020016040519081016040528092919081815260200182805461046390610cfd565b80156104b05780601f10610485576101008083540402835291602001916104b0565b820191906000526020600020905b81548152906001019060200180831161049357829003601f168201915b50505050508152505081525050905084565b8634146104ce57600080fd5b60008551116104dc57600080fd5b60008451116104ea57600080fd5b60008251116104f857600080fd5b600081511161050657600080fd5b600089511161051457600080fd5b600088511161052257600080fd5b6000604051806060016040528085815260200184815260200183815250905060006040518060600160405280888152602001878152602001838152509050600060405180608001604052808d81526020018c81526020018b815260200183815250905080600160003373ffffffffffffffffffffffffffffffffffffffff1673ffffffffffffffffffffffffffffffffffffffff16815260200190815260200160002060008201518160000190805190602001906105e192919061071c565b5060208201518160010190805190602001906105fe92919061071c565b5060408201518160020155606082015181600301600082015181600001908051906020019061062e92919061071c565b50602082015181600101908051906020019061064b92919061071c565b50604082015181600201600082015181600001908051906020019061067192919061071c565b50602082015181600101908051906020019061068e92919061071c565b5060408201518160020190805190602001906106ab92919061071c565b5050505050905050896000546106c19190610c17565b6000819055508873ffffffffffffffffffffffffffffffffffffffff166108fc8b9081150290604051600060405180830381858888f1935050505015801561070d573d6000803e3d6000fd5b50505050505050505050505050565b82805461072890610cfd565b90600052602060002090601f01602090048101928261074a5760008555610791565b82601f1061076357805160ff1916838001178555610791565b82800160010185558215610791579182015b82811115610790578251825591602001919060010190610775565b5b50905061079e91906107a2565b5090565b5b808211156107bb5760008160009055506001016107a3565b5090565b60006107d26107cd84610bb9565b610b94565b9050828152602081018484840111156107ea57600080fd5b6107f5848285610cbb565b509392505050565b60008135905061080c81610dfe565b92915050565b60008135905061082181610e15565b92915050565b600082601f83011261083857600080fd5b81356108488482602086016107bf565b91505092915050565b60008135905061086081610e2c565b92915050565b60006020828403121561087857600080fd5b6000610886848285016107fd565b91505092915050565b60008060008060008060008060006101208a8c0312156108ae57600080fd5b60008a013567ffffffffffffffff8111156108c857600080fd5b6108d48c828d01610827565b99505060208a013567ffffffffffffffff8111156108f157600080fd5b6108fd8c828d01610827565b985050604061090e8c828d01610851565b975050606061091f8c828d01610812565b96505060808a013567ffffffffffffffff81111561093c57600080fd5b6109488c828d01610827565b95505060a08a013567ffffffffffffffff81111561096557600080fd5b6109718c828d01610827565b94505060c08a013567ffffffffffffffff81111561098e57600080fd5b61099a8c828d01610827565b93505060e08a013567ffffffffffffffff8111156109b757600080fd5b6109c38c828d01610827565b9250506101008a013567ffffffffffffffff8111156109e157600080fd5b6109ed8c828d01610827565b9150509295985092959850929598565b6000610a0882610bea565b610a128185610bf5565b9350610a22818560208601610cca565b610a2b81610ded565b840191505092915050565b6000610a4182610bea565b610a4b8185610c06565b9350610a5b818560208601610cca565b610a6481610ded565b840191505092915050565b60006060830160008301518482036000860152610a8c82826109fd565b91505060208301518482036020860152610aa682826109fd565b91505060408301518482036040860152610ac08282610acd565b9150508091505092915050565b60006060830160008301518482036000860152610aea82826109fd565b91505060208301518482036020860152610b0482826109fd565b91505060408301518482036040860152610b1e82826109fd565b9150508091505092915050565b610b3481610cb1565b82525050565b60006080820190508181036000830152610b548187610a36565b90508181036020830152610b688186610a36565b9050610b776040830185610b2b565b8181036060830152610b898184610a6f565b905095945050505050565b6000610b9e610baf565b9050610baa8282610d2f565b919050565b6000604051905090565b600067ffffffffffffffff821115610bd457610bd3610dbe565b5b610bdd82610ded565b9050602081019050919050565b600081519050919050565b600082825260208201905092915050565b600082825260208201905092915050565b6000610c2282610cb1565b9150610c2d83610cb1565b9250827fffffffffffffffffffffffffffffffffffffffffffffffffffffffffffffffff03821115610c6257610c61610d60565b5b828201905092915050565b6000610c7882610c91565b9050919050565b6000610c8a82610c91565b9050919050565b600073ffffffffffffffffffffffffffffffffffffffff82169050919050565b6000819050919050565b82818337600083830152505050565b60005b83811015610ce8578082015181840152602081019050610ccd565b83811115610cf7576000848401525b50505050565b60006002820490506001821680610d1557607f821691505b60208210811415610d2957610d28610d8f565b5b50919050565b610d3882610ded565b810181811067ffffffffffffffff82111715610d5757610d56610dbe565b5b80604052505050565b7f4e487b7100000000000000000000000000000000000000000000000000000000600052601160045260246000fd5b7f4e487b7100000000000000000000000000000000000000000000000000000000600052602260045260246000fd5b7f4e487b7100000000000000000000000000000000000000000000000000000000600052604160045260246000fd5b6000601f19601f8301169050919050565b610e0781610c6d565b8114610e1257600080fd5b50565b610e1e81610c7f565b8114610e2957600080fd5b50565b610e3581610cb1565b8114610e4057600080fd5b5056fea2646970667358221220ea191243200cac7c80fc73c172bcbd01604f0b5f66c0ed2f15714f979bfbf50364736f6c63430008030033",
  "immutableReferences": {},
  "source": "// SPDX-License-Identifier: MIT\npragma solidity >=0.4.22 <0.9.0;\n\ncontract WalmartPaymentSystem {\n    uint256 totalWalmartEarning = 0;\n    struct Store {\n        string storeType;\n        string storeName;\n        string storeId;\n    }\n    struct StoreProduct {\n        string productName;\n        string productID;\n        Store store;\n    }\n    struct Transection {\n        string dateOfTransection;\n        string transectionPerformedBy;\n        uint256 totalAmountPayed;\n        StoreProduct storeProduct;\n    }\n\n    constructor() {}\n\n    mapping(address => Transection) public walmartTransections;\n\n    function WalmartPaymentInEther(\n        string memory dateOfTransection,\n        string memory transectionPerformedBy,\n        uint256 totalAmountPayed,\n        address payable OwnerAccount,\n        string memory productName,\n        string memory productID,\n        string memory storeType,\n        string memory storeName,\n        string memory storeId\n    ) external payable {\n        // Validate Transection :: =>\n        //    1) validate Amount payed\n        //    2) productName should not be empty\n        //    3) productID should not be empty\n        //    4) storeName should not be empty\n        //    5) storeId should not be empty\n        //    6) dateOfTransection should not be empty\n        //    7) transectionPerformedBy should not be empty\n\n        require(msg.value == totalAmountPayed);\n        require(bytes(productName).length > 0);\n        require(bytes(productID).length > 0);\n        require(bytes(storeName).length > 0);\n        require(bytes(storeId).length > 0);\n        require(bytes(dateOfTransection).length > 0);\n        require(bytes(transectionPerformedBy).length > 0);\n\n        // Store , Store Product , Transection objects ::=>\n        Store memory store = Store(storeType, storeName, storeId);\n        StoreProduct memory storeProduct = StoreProduct(\n            productName,\n            productID,\n            store\n        );\n        Transection memory transection = Transection(\n            dateOfTransection,\n            transectionPerformedBy,\n            totalAmountPayed,\n            storeProduct\n        );\n        // Object Of transection stored in  walmartTransection in smartcontract\n        walmartTransections[msg.sender] = transection;\n\n        totalWalmartEarning = totalWalmartEarning + totalAmountPayed;\n        // Payment transfered to OwnerAccount\n        OwnerAccount.transfer(totalAmountPayed);\n    }\n}\n",
  "sourcePath": "G:\\PROJECT\\Blockchain Project\\contracts\\WalmartPaymentSystem.sol",
  "compiler": {
    "name": "solc",
    "version": "0.8.3+commit.8d00100c.Emscripten.clang"
  },
  "schemaVersion": "3.4.7",
  "updatedAt": "2022-06-14T13:50:09.848Z",
  "networkType": "ethereum",
  "devdoc": {
    "kind": "dev",
    "methods": {},
    "version": 1
  },
  "userdoc": {
    "kind": "user",
    "methods": {},
    "version": 1
  }
}