{
  "contractName": "WalmartNFT",
  "abi": [
    {
      "inputs": [],
      "stateMutability": "nonpayable",
      "type": "constructor"
    },
    {
      "anonymous": false,
      "inputs": [
        {
          "indexed": true,
          "internalType": "address",
          "name": "owner",
          "type": "address"
        },
        {
          "indexed": true,
          "internalType": "address",
          "name": "approved",
          "type": "address"
        },
        {
          "indexed": true,
          "internalType": "uint256",
          "name": "tokenId",
          "type": "uint256"
        }
      ],
      "name": "Approval",
      "type": "event"
    },
    {
      "anonymous": false,
      "inputs": [
        {
          "indexed": true,
          "internalType": "address",
          "name": "owner",
          "type": "address"
        },
        {
          "indexed": true,
          "internalType": "address",
          "name": "operator",
          "type": "address"
        },
        {
          "indexed": false,
          "internalType": "bool",
          "name": "approved",
          "type": "bool"
        }
      ],
      "name": "ApprovalForAll",
      "type": "event"
    },
    {
      "anonymous": false,
      "inputs": [
        {
          "indexed": false,
          "internalType": "address",
          "name": "account",
          "type": "address"
        }
      ],
      "name": "Paused",
      "type": "event"
    },
    {
      "anonymous": false,
      "inputs": [
        {
          "indexed": true,
          "internalType": "bytes32",
          "name": "role",
          "type": "bytes32"
        },
        {
          "indexed": true,
          "internalType": "bytes32",
          "name": "previousAdminRole",
          "type": "bytes32"
        },
        {
          "indexed": true,
          "internalType": "bytes32",
          "name": "newAdminRole",
          "type": "bytes32"
        }
      ],
      "name": "RoleAdminChanged",
      "type": "event"
    },
    {
      "anonymous": false,
      "inputs": [
        {
          "indexed": true,
          "internalType": "bytes32",
          "name": "role",
          "type": "bytes32"
        },
        {
          "indexed": true,
          "internalType": "address",
          "name": "account",
          "type": "address"
        },
        {
          "indexed": true,
          "internalType": "address",
          "name": "sender",
          "type": "address"
        }
      ],
      "name": "RoleGranted",
      "type": "event"
    },
    {
      "anonymous": false,
      "inputs": [
        {
          "indexed": true,
          "internalType": "bytes32",
          "name": "role",
          "type": "bytes32"
        },
        {
          "indexed": true,
          "internalType": "address",
          "name": "account",
          "type": "address"
        },
        {
          "indexed": true,
          "internalType": "address",
          "name": "sender",
          "type": "address"
        }
      ],
      "name": "RoleRevoked",
      "type": "event"
    },
    {
      "anonymous": false,
      "inputs": [
        {
          "indexed": true,
          "internalType": "address",
          "name": "from",
          "type": "address"
        },
        {
          "indexed": true,
          "internalType": "address",
          "name": "to",
          "type": "address"
        },
        {
          "indexed": true,
          "internalType": "uint256",
          "name": "tokenId",
          "type": "uint256"
        }
      ],
      "name": "Transfer",
      "type": "event"
    },
    {
      "anonymous": false,
      "inputs": [
        {
          "indexed": false,
          "internalType": "address",
          "name": "account",
          "type": "address"
        }
      ],
      "name": "Unpaused",
      "type": "event"
    },
    {
      "inputs": [],
      "name": "DEFAULT_ADMIN_ROLE",
      "outputs": [
        {
          "internalType": "bytes32",
          "name": "",
          "type": "bytes32"
        }
      ],
      "stateMutability": "view",
      "type": "function",
      "constant": true
    },
    {
      "inputs": [],
      "name": "MINTER_ROLE",
      "outputs": [
        {
          "internalType": "bytes32",
          "name": "",
          "type": "bytes32"
        }
      ],
      "stateMutability": "view",
      "type": "function",
      "constant": true
    },
    {
      "inputs": [],
      "name": "PAUSER_ROLE",
      "outputs": [
        {
          "internalType": "bytes32",
          "name": "",
          "type": "bytes32"
        }
      ],
      "stateMutability": "view",
      "type": "function",
      "constant": true
    },
    {
      "inputs": [
        {
          "internalType": "address",
          "name": "to",
          "type": "address"
        },
        {
          "internalType": "uint256",
          "name": "tokenId",
          "type": "uint256"
        }
      ],
      "name": "approve",
      "outputs": [],
      "stateMutability": "nonpayable",
      "type": "function"
    },
    {
      "inputs": [
        {
          "internalType": "address",
          "name": "owner",
          "type": "address"
        }
      ],
      "name": "balanceOf",
      "outputs": [
        {
          "internalType": "uint256",
          "name": "",
          "type": "uint256"
        }
      ],
      "stateMutability": "view",
      "type": "function",
      "constant": true
    },
    {
      "inputs": [
        {
          "internalType": "uint256",
          "name": "tokenId",
          "type": "uint256"
        }
      ],
      "name": "burn",
      "outputs": [],
      "stateMutability": "nonpayable",
      "type": "function"
    },
    {
      "inputs": [
        {
          "internalType": "uint256",
          "name": "tokenId",
          "type": "uint256"
        }
      ],
      "name": "getApproved",
      "outputs": [
        {
          "internalType": "address",
          "name": "",
          "type": "address"
        }
      ],
      "stateMutability": "view",
      "type": "function",
      "constant": true
    },
    {
      "inputs": [
        {
          "internalType": "bytes32",
          "name": "role",
          "type": "bytes32"
        }
      ],
      "name": "getRoleAdmin",
      "outputs": [
        {
          "internalType": "bytes32",
          "name": "",
          "type": "bytes32"
        }
      ],
      "stateMutability": "view",
      "type": "function",
      "constant": true
    },
    {
      "inputs": [
        {
          "internalType": "bytes32",
          "name": "role",
          "type": "bytes32"
        },
        {
          "internalType": "uint256",
          "name": "index",
          "type": "uint256"
        }
      ],
      "name": "getRoleMember",
      "outputs": [
        {
          "internalType": "address",
          "name": "",
          "type": "address"
        }
      ],
      "stateMutability": "view",
      "type": "function",
      "constant": true
    },
    {
      "inputs": [
        {
          "internalType": "bytes32",
          "name": "role",
          "type": "bytes32"
        }
      ],
      "name": "getRoleMemberCount",
      "outputs": [
        {
          "internalType": "uint256",
          "name": "",
          "type": "uint256"
        }
      ],
      "stateMutability": "view",
      "type": "function",
      "constant": true
    },
    {
      "inputs": [
        {
          "internalType": "bytes32",
          "name": "role",
          "type": "bytes32"
        },
        {
          "internalType": "address",
          "name": "account",
          "type": "address"
        }
      ],
      "name": "grantRole",
      "outputs": [],
      "stateMutability": "nonpayable",
      "type": "function"
    },
    {
      "inputs": [
        {
          "internalType": "bytes32",
          "name": "role",
          "type": "bytes32"
        },
        {
          "internalType": "address",
          "name": "account",
          "type": "address"
        }
      ],
      "name": "hasRole",
      "outputs": [
        {
          "internalType": "bool",
          "name": "",
          "type": "bool"
        }
      ],
      "stateMutability": "view",
      "type": "function",
      "constant": true
    },
    {
      "inputs": [
        {
          "internalType": "address",
          "name": "owner",
          "type": "address"
        },
        {
          "internalType": "address",
          "name": "operator",
          "type": "address"
        }
      ],
      "name": "isApprovedForAll",
      "outputs": [
        {
          "internalType": "bool",
          "name": "",
          "type": "bool"
        }
      ],
      "stateMutability": "view",
      "type": "function",
      "constant": true
    },
    {
      "inputs": [
        {
          "internalType": "address",
          "name": "to",
          "type": "address"
        }
      ],
      "name": "mint",
      "outputs": [],
      "stateMutability": "nonpayable",
      "type": "function"
    },
    {
      "inputs": [],
      "name": "name",
      "outputs": [
        {
          "internalType": "string",
          "name": "",
          "type": "string"
        }
      ],
      "stateMutability": "view",
      "type": "function",
      "constant": true
    },
    {
      "inputs": [
        {
          "internalType": "uint256",
          "name": "tokenId",
          "type": "uint256"
        }
      ],
      "name": "ownerOf",
      "outputs": [
        {
          "internalType": "address",
          "name": "",
          "type": "address"
        }
      ],
      "stateMutability": "view",
      "type": "function",
      "constant": true
    },
    {
      "inputs": [],
      "name": "pause",
      "outputs": [],
      "stateMutability": "nonpayable",
      "type": "function"
    },
    {
      "inputs": [],
      "name": "paused",
      "outputs": [
        {
          "internalType": "bool",
          "name": "",
          "type": "bool"
        }
      ],
      "stateMutability": "view",
      "type": "function",
      "constant": true
    },
    {
      "inputs": [
        {
          "internalType": "bytes32",
          "name": "role",
          "type": "bytes32"
        },
        {
          "internalType": "address",
          "name": "account",
          "type": "address"
        }
      ],
      "name": "renounceRole",
      "outputs": [],
      "stateMutability": "nonpayable",
      "type": "function"
    },
    {
      "inputs": [
        {
          "internalType": "bytes32",
          "name": "role",
          "type": "bytes32"
        },
        {
          "internalType": "address",
          "name": "account",
          "type": "address"
        }
      ],
      "name": "revokeRole",
      "outputs": [],
      "stateMutability": "nonpayable",
      "type": "function"
    },
    {
      "inputs": [
        {
          "internalType": "address",
          "name": "from",
          "type": "address"
        },
        {
          "internalType": "address",
          "name": "to",
          "type": "address"
        },
        {
          "internalType": "uint256",
          "name": "tokenId",
          "type": "uint256"
        }
      ],
      "name": "safeTransferFrom",
      "outputs": [],
      "stateMutability": "nonpayable",
      "type": "function"
    },
    {
      "inputs": [
        {
          "internalType": "address",
          "name": "from",
          "type": "address"
        },
        {
          "internalType": "address",
          "name": "to",
          "type": "address"
        },
        {
          "internalType": "uint256",
          "name": "tokenId",
          "type": "uint256"
        },
        {
          "internalType": "bytes",
          "name": "_data",
          "type": "bytes"
        }
      ],
      "name": "safeTransferFrom",
      "outputs": [],
      "stateMutability": "nonpayable",
      "type": "function"
    },
    {
      "inputs": [
        {
          "internalType": "address",
          "name": "operator",
          "type": "address"
        },
        {
          "internalType": "bool",
          "name": "approved",
          "type": "bool"
        }
      ],
      "name": "setApprovalForAll",
      "outputs": [],
      "stateMutability": "nonpayable",
      "type": "function"
    },
    {
      "inputs": [
        {
          "internalType": "bytes4",
          "name": "interfaceId",
          "type": "bytes4"
        }
      ],
      "name": "supportsInterface",
      "outputs": [
        {
          "internalType": "bool",
          "name": "",
          "type": "bool"
        }
      ],
      "stateMutability": "view",
      "type": "function",
      "constant": true
    },
    {
      "inputs": [],
      "name": "symbol",
      "outputs": [
        {
          "internalType": "string",
          "name": "",
          "type": "string"
        }
      ],
      "stateMutability": "view",
      "type": "function",
      "constant": true
    },
    {
      "inputs": [
        {
          "internalType": "uint256",
          "name": "index",
          "type": "uint256"
        }
      ],
      "name": "tokenByIndex",
      "outputs": [
        {
          "internalType": "uint256",
          "name": "",
          "type": "uint256"
        }
      ],
      "stateMutability": "view",
      "type": "function",
      "constant": true
    },
    {
      "inputs": [
        {
          "internalType": "address",
          "name": "owner",
          "type": "address"
        },
        {
          "internalType": "uint256",
          "name": "index",
          "type": "uint256"
        }
      ],
      "name": "tokenOfOwnerByIndex",
      "outputs": [
        {
          "internalType": "uint256",
          "name": "",
          "type": "uint256"
        }
      ],
      "stateMutability": "view",
      "type": "function",
      "constant": true
    },
    {
      "inputs": [],
      "name": "totalSupply",
      "outputs": [
        {
          "internalType": "uint256",
          "name": "",
          "type": "uint256"
        }
      ],
      "stateMutability": "view",
      "type": "function",
      "constant": true
    },
    {
      "inputs": [
        {
          "internalType": "address",
          "name": "from",
          "type": "address"
        },
        {
          "internalType": "address",
          "name": "to",
          "type": "address"
        },
        {
          "internalType": "uint256",
          "name": "tokenId",
          "type": "uint256"
        }
      ],
      "name": "transferFrom",
      "outputs": [],
      "stateMutability": "nonpayable",
      "type": "function"
    },
    {
      "inputs": [],
      "name": "unpause",
      "outputs": [],
      "stateMutability": "nonpayable",
      "type": "function"
    },
    {
      "inputs": [
        {
          "internalType": "address",
          "name": "",
          "type": "address"
        }
      ],
      "name": "walmartTransections",
      "outputs": [
        {
          "internalType": "string",
          "name": "dateOfTransection",
          "type": "string"
        },
        {
          "internalType": "string",
          "name": "transectionPerformedBy",
          "type": "string"
        },
        {
          "internalType": "uint256",
          "name": "totalAmountPayed",
          "type": "uint256"
        },
        {
          "components": [
            {
              "internalType": "string",
              "name": "productName",
              "type": "string"
            },
            {
              "internalType": "string",
              "name": "productID",
              "type": "string"
            },
            {
              "internalType": "string",
              "name": "uri",
              "type": "string"
            },
            {
              "components": [
                {
                  "internalType": "string",
                  "name": "storeType",
                  "type": "string"
                },
                {
                  "internalType": "string",
                  "name": "storeName",
                  "type": "string"
                },
                {
                  "internalType": "string",
                  "name": "storeId",
                  "type": "string"
                }
              ],
              "internalType": "struct WalmartNFT.Store",
              "name": "store",
              "type": "tuple"
            }
          ],
          "internalType": "struct WalmartNFT.StoreProduct",
          "name": "storeProduct",
          "type": "tuple"
        }
      ],
      "stateMutability": "view",
      "type": "function",
      "constant": true
    },
    {
      "inputs": [
        {
          "internalType": "uint256",
          "name": "tokenId",
          "type": "uint256"
        }
      ],
      "name": "tokenURI",
      "outputs": [
        {
          "internalType": "string",
          "name": "",
          "type": "string"
        }
      ],
      "stateMutability": "view",
      "type": "function",
      "constant": true
    },
    {
      "inputs": [
        {
          "internalType": "string",
          "name": "dateOfTransection",
          "type": "string"
        },
        {
          "internalType": "string",
          "name": "transectionPerformedBy",
          "type": "string"
        },
        {
          "internalType": "uint256",
          "name": "totalAmountPayed",
          "type": "uint256"
        },
        {
          "internalType": "uint256",
          "name": "productAmount",
          "type": "uint256"
        },
        {
          "internalType": "string",
          "name": "productName",
          "type": "string"
        },
        {
          "internalType": "string",
          "name": "productID",
          "type": "string"
        },
        {
          "internalType": "string",
          "name": "productURI",
          "type": "string"
        },
        {
          "internalType": "string",
          "name": "storeType",
          "type": "string"
        },
        {
          "internalType": "string",
          "name": "storeName",
          "type": "string"
        },
        {
          "internalType": "string",
          "name": "storeId",
          "type": "string"
        }
      ],
      "name": "WalmartPaymentInNFT",
      "outputs": [],
      "stateMutability": "nonpayable",
      "type": "function"
    }
  ],
  "bytecode": "0x60806040526000600f553480156200001657600080fd5b506040518060400160405280600a81526020017f57616c6d6172744e4654000000000000000000000000000000000000000000008152506040518060400160405280600381526020017f554155000000000000000000000000000000000000000000000000000000000081525060405180606001604052806022815260200162005b5a6022913982828160029080519060200190620000b79291906200044c565b508060039080519060200190620000d09291906200044c565b5050506000600c60006101000a81548160ff02191690831515021790555080600e9080519060200190620001069291906200044c565b506200012b6000801b6200011f620001b660201b60201c565b620001be60201b60201c565b6200016c7f9f2df0fed2c77648de5860a4cc508cd0818c85b8b8a1ab4ceeef8d981c8956a662000160620001b660201b60201c565b620001be60201b60201c565b620001ad7f65d7a28e3265b37a6474929f336521b332c1681b933f6cb9f3376673440d862a620001a1620001b660201b60201c565b620001be60201b60201c565b50505062000561565b600033905090565b620001d08282620001d460201b60201c565b5050565b620001eb82826200021c60201b620018b81760201c565b6200021781600160008581526020019081526020016000206200030d60201b620019981790919060201c565b505050565b6200022e82826200034560201b60201c565b6200030957600160008084815260200190815260200160002060000160008373ffffffffffffffffffffffffffffffffffffffff1673ffffffffffffffffffffffffffffffffffffffff16815260200190815260200160002060006101000a81548160ff021916908315150217905550620002ae620001b660201b60201c565b73ffffffffffffffffffffffffffffffffffffffff168173ffffffffffffffffffffffffffffffffffffffff16837f2f8788117e7eff1d82e926ec794901d17c78024a50270940304540a733656f0d60405160405180910390a45b5050565b60006200033d836000018373ffffffffffffffffffffffffffffffffffffffff1660001b620003af60201b60201c565b905092915050565b600080600084815260200190815260200160002060000160008373ffffffffffffffffffffffffffffffffffffffff1673ffffffffffffffffffffffffffffffffffffffff16815260200190815260200160002060009054906101000a900460ff16905092915050565b6000620003c383836200042960201b60201c565b6200041e57826000018290806001815401808255809150506001900390600052602060002001600090919091909150558260000180549050836001016000848152602001908152602001600020819055506001905062000423565b600090505b92915050565b600080836001016000848152602001908152602001600020541415905092915050565b8280546200045a90620004fc565b90600052602060002090601f0160209004810192826200047e5760008555620004ca565b82601f106200049957805160ff1916838001178555620004ca565b82800160010185558215620004ca579182015b82811115620004c9578251825591602001919060010190620004ac565b5b509050620004d99190620004dd565b5090565b5b80821115620004f8576000816000905550600101620004de565b5090565b600060028204905060018216806200051557607f821691505b602082108114156200052c576200052b62000532565b5b50919050565b7f4e487b7100000000000000000000000000000000000000000000000000000000600052602260045260246000fd5b6155e980620005716000396000f3fe608060405234801561001057600080fd5b50600436106101fb5760003560e01c80635c975abb1161011a578063a217fddf116100ad578063ca15c8731161007c578063ca15c873146105d5578063d539139314610605578063d547741f14610623578063e63ab1e91461063f578063e985e9c51461065d576101fb565b8063a217fddf1461054f578063a22cb4651461056d578063b88d4fde14610589578063c87b56dd146105a5576101fb565b80638456cb59116100e95780638456cb59146104c75780639010d07c146104d157806391d148541461050157806395d89b4114610531576101fb565b80635c975abb1461042d5780636352211e1461044b5780636a6278421461047b57806370a0823114610497576101fb565b80632f745c591161019257806342966c681161016157806342966c68146103925780634417265b146103ae5780634f6ccce7146103ca578063513ce171146103fa576101fb565b80632f745c591461032057806336568abe146103505780633f4ba83a1461036c57806342842e0e14610376576101fb565b806318160ddd116101ce57806318160ddd1461029a57806323b872dd146102b8578063248a9ca3146102d45780632f2ff15d14610304576101fb565b806301ffc9a71461020057806306fdde0314610230578063081812fc1461024e578063095ea7b31461027e575b600080fd5b61021a60048036038101906102159190613cc2565b61068d565b6040516102279190614581565b60405180910390f35b61023861069f565b60405161024591906145b7565b60405180910390f35b61026860048036038101906102639190613eaf565b610731565b604051610275919061451a565b60405180910390f35b61029860048036038101906102939190613be5565b6107b6565b005b6102a26108ce565b6040516102af9190614953565b60405180910390f35b6102d260048036038101906102cd9190613adf565b6108db565b005b6102ee60048036038101906102e99190613c21565b61093b565b6040516102fb919061459c565b60405180910390f35b61031e60048036038101906103199190613c4a565b61095a565b005b61033a60048036038101906103359190613be5565b61097b565b6040516103479190614953565b60405180910390f35b61036a60048036038101906103659190613c4a565b610a20565b005b610374610aa3565b005b610390600480360381019061038b9190613adf565b610b1d565b005b6103ac60048036038101906103a79190613eaf565b610b3d565b005b6103c860048036038101906103c39190613d14565b610b99565b005b6103e460048036038101906103df9190613eaf565b610dd0565b6040516103f19190614953565b60405180910390f35b610414600480360381019061040f9190613a7a565b610e67565b60405161042494939291906145d9565b60405180910390f35b610435611331565b6040516104429190614581565b60405180910390f35b61046560048036038101906104609190613eaf565b611348565b604051610472919061451a565b60405180910390f35b61049560048036038101906104909190613a7a565b6113fa565b005b6104b160048036038101906104ac9190613a7a565b61148a565b6040516104be9190614953565b60405180910390f35b6104cf611542565b005b6104eb60048036038101906104e69190613c86565b6115bc565b6040516104f8919061451a565b60405180910390f35b61051b60048036038101906105169190613c4a565b6115eb565b6040516105289190614581565b60405180910390f35b610539611655565b60405161054691906145b7565b60405180910390f35b6105576116e7565b604051610564919061459c565b60405180910390f35b61058760048036038101906105829190613ba9565b6116ee565b005b6105a3600480360381019061059e9190613b2e565b611704565b005b6105bf60048036038101906105ba9190613eaf565b611766565b6040516105cc91906145b7565b60405180910390f35b6105ef60048036038101906105ea9190613c21565b611797565b6040516105fc9190614953565b60405180910390f35b61060d6117bb565b60405161061a919061459c565b60405180910390f35b61063d60048036038101906106389190613c4a565b6117df565b005b610647611800565b604051610654919061459c565b60405180910390f35b61067760048036038101906106729190613aa3565b611824565b6040516106849190614581565b60405180910390f35b6000610698826119c8565b9050919050565b6060600280546106ae90614c48565b80601f01602080910402602001604051908101604052809291908181526020018280546106da90614c48565b80156107275780601f106106fc57610100808354040283529160200191610727565b820191906000526020600020905b81548152906001019060200180831161070a57829003601f168201915b5050505050905090565b600061073c82611a42565b61077b576040517f08c379a000000000000000000000000000000000000000000000000000000000815260040161077290614833565b60405180910390fd5b6006600083815260200190815260200160002060009054906101000a900473ffffffffffffffffffffffffffffffffffffffff169050919050565b60006107c182611348565b90508073ffffffffffffffffffffffffffffffffffffffff168373ffffffffffffffffffffffffffffffffffffffff161415610832576040517f08c379a000000000000000000000000000000000000000000000000000000000815260040161082990614873565b60405180910390fd5b8073ffffffffffffffffffffffffffffffffffffffff16610851611aae565b73ffffffffffffffffffffffffffffffffffffffff161480610880575061087f8161087a611aae565b611824565b5b6108bf576040517f08c379a00000000000000000000000000000000000000000000000000000000081526004016108b6906147b3565b60405180910390fd5b6108c98383611ab6565b505050565b6000600a80549050905090565b6108ec6108e6611aae565b82611b6f565b61092b576040517f08c379a000000000000000000000000000000000000000000000000000000000815260040161092290614893565b60405180910390fd5b610936838383611c4d565b505050565b6000806000838152602001908152602001600020600101549050919050565b6109638261093b565b61096c81611eb4565b6109768383611ec8565b505050565b60006109868361148a565b82106109c7576040517f08c379a00000000000000000000000000000000000000000000000000000000081526004016109be90614693565b60405180910390fd5b600860008473ffffffffffffffffffffffffffffffffffffffff1673ffffffffffffffffffffffffffffffffffffffff168152602001908152602001600020600083815260200190815260200160002054905092915050565b610a28611aae565b73ffffffffffffffffffffffffffffffffffffffff168173ffffffffffffffffffffffffffffffffffffffff1614610a95576040517f08c379a0000000000000000000000000000000000000000000000000000000008152600401610a8c90614933565b60405180910390fd5b610a9f8282611efc565b5050565b610ad47f65d7a28e3265b37a6474929f336521b332c1681b933f6cb9f3376673440d862a610acf611aae565b6115eb565b610b13576040517f08c379a0000000000000000000000000000000000000000000000000000000008152600401610b0a90614913565b60405180910390fd5b610b1b611f30565b565b610b3883838360405180602001604052806000815250611704565b505050565b610b4e610b48611aae565b82611b6f565b610b8d576040517f08c379a0000000000000000000000000000000000000000000000000000000008152600401610b84906148f3565b60405180910390fd5b610b9681611fd2565b50565b878714610ba557600080fd5b6000865111610bb357600080fd5b6000855111610bc157600080fd5b6000825111610bcf57600080fd5b6000815111610bdd57600080fd5b60008a5111610beb57600080fd5b6000895111610bf957600080fd5b6000604051806060016040528085815260200184815260200183815250905060006040518060800160405280898152602001888152602001878152602001838152509050600060405180608001604052808e81526020018d81526020018c815260200183815250905080601060003373ffffffffffffffffffffffffffffffffffffffff1673ffffffffffffffffffffffffffffffffffffffff1681526020019081526020016000206000820151816000019080519060200190610cbe929190613889565b506020820151816001019080519060200190610cdb929190613889565b50604082015181600201556060820151816003016000820151816000019080519060200190610d0b929190613889565b506020820151816001019080519060200190610d28929190613889565b506040820151816002019080519060200190610d45929190613889565b506060820151816003016000820151816000019080519060200190610d6b929190613889565b506020820151816001019080519060200190610d88929190613889565b506040820151816002019080519060200190610da5929190613889565b50505050509050508a600f54610dbb9190614a49565b600f8190555050505050505050505050505050565b6000610dda6108ce565b8210610e1b576040517f08c379a0000000000000000000000000000000000000000000000000000000008152600401610e12906148b3565b60405180910390fd5b600a8281548110610e55577f4e487b7100000000000000000000000000000000000000000000000000000000600052603260045260246000fd5b90600052602060002001549050919050565b6010602052806000526040600020600091509050806000018054610e8a90614c48565b80601f0160208091040260200160405190810160405280929190818152602001828054610eb690614c48565b8015610f035780601f10610ed857610100808354040283529160200191610f03565b820191906000526020600020905b815481529060010190602001808311610ee657829003601f168201915b505050505090806001018054610f1890614c48565b80601f0160208091040260200160405190810160405280929190818152602001828054610f4490614c48565b8015610f915780601f10610f6657610100808354040283529160200191610f91565b820191906000526020600020905b815481529060010190602001808311610f7457829003601f168201915b50505050509080600201549080600301604051806080016040529081600082018054610fbc90614c48565b80601f0160208091040260200160405190810160405280929190818152602001828054610fe890614c48565b80156110355780601f1061100a57610100808354040283529160200191611035565b820191906000526020600020905b81548152906001019060200180831161101857829003601f168201915b5050505050815260200160018201805461104e90614c48565b80601f016020809104026020016040519081016040528092919081815260200182805461107a90614c48565b80156110c75780601f1061109c576101008083540402835291602001916110c7565b820191906000526020600020905b8154815290600101906020018083116110aa57829003601f168201915b505050505081526020016002820180546110e090614c48565b80601f016020809104026020016040519081016040528092919081815260200182805461110c90614c48565b80156111595780601f1061112e57610100808354040283529160200191611159565b820191906000526020600020905b81548152906001019060200180831161113c57829003601f168201915b505050505081526020016003820160405180606001604052908160008201805461118290614c48565b80601f01602080910402602001604051908101604052809291908181526020018280546111ae90614c48565b80156111fb5780601f106111d0576101008083540402835291602001916111fb565b820191906000526020600020905b8154815290600101906020018083116111de57829003601f168201915b5050505050815260200160018201805461121490614c48565b80601f016020809104026020016040519081016040528092919081815260200182805461124090614c48565b801561128d5780601f106112625761010080835404028352916020019161128d565b820191906000526020600020905b81548152906001019060200180831161127057829003601f168201915b505050505081526020016002820180546112a690614c48565b80601f01602080910402602001604051908101604052809291908181526020018280546112d290614c48565b801561131f5780601f106112f45761010080835404028352916020019161131f565b820191906000526020600020905b81548152906001019060200180831161130257829003601f168201915b50505050508152505081525050905084565b6000600c60009054906101000a900460ff16905090565b6000806004600084815260200190815260200160002060009054906101000a900473ffffffffffffffffffffffffffffffffffffffff169050600073ffffffffffffffffffffffffffffffffffffffff168173ffffffffffffffffffffffffffffffffffffffff1614156113f1576040517f08c379a00000000000000000000000000000000000000000000000000000000081526004016113e8906147f3565b60405180910390fd5b80915050919050565b61142b7f9f2df0fed2c77648de5860a4cc508cd0818c85b8b8a1ab4ceeef8d981c8956a6611426611aae565b6115eb565b61146a576040517f08c379a0000000000000000000000000000000000000000000000000000000008152600401611461906148d3565b60405180910390fd5b61147d81611478600d6120ef565b6120fd565b611487600d6122d7565b50565b60008073ffffffffffffffffffffffffffffffffffffffff168273ffffffffffffffffffffffffffffffffffffffff1614156114fb576040517f08c379a00000000000000000000000000000000000000000000000000000000081526004016114f2906147d3565b60405180910390fd5b600560008373ffffffffffffffffffffffffffffffffffffffff1673ffffffffffffffffffffffffffffffffffffffff168152602001908152602001600020549050919050565b6115737f65d7a28e3265b37a6474929f336521b332c1681b933f6cb9f3376673440d862a61156e611aae565b6115eb565b6115b2576040517f08c379a00000000000000000000000000000000000000000000000000000000081526004016115a990614713565b60405180910390fd5b6115ba6122ed565b565b60006115e3826001600086815260200190815260200160002061239090919063ffffffff16565b905092915050565b600080600084815260200190815260200160002060000160008373ffffffffffffffffffffffffffffffffffffffff1673ffffffffffffffffffffffffffffffffffffffff16815260200190815260200160002060009054906101000a900460ff16905092915050565b60606003805461166490614c48565b80601f016020809104026020016040519081016040528092919081815260200182805461169090614c48565b80156116dd5780601f106116b2576101008083540402835291602001916116dd565b820191906000526020600020905b8154815290600101906020018083116116c057829003601f168201915b5050505050905090565b6000801b81565b6117006116f9611aae565b83836123aa565b5050565b61171561170f611aae565b83611b6f565b611754576040517f08c379a000000000000000000000000000000000000000000000000000000000815260040161174b90614893565b60405180910390fd5b61176084848484612517565b50505050565b606061177182612573565b60405160200161178191906144be565b6040516020818303038152906040529050919050565b60006117b46001600084815260200190815260200160002061261a565b9050919050565b7f9f2df0fed2c77648de5860a4cc508cd0818c85b8b8a1ab4ceeef8d981c8956a681565b6117e88261093b565b6117f181611eb4565b6117fb8383611efc565b505050565b7f65d7a28e3265b37a6474929f336521b332c1681b933f6cb9f3376673440d862a81565b6000600760008473ffffffffffffffffffffffffffffffffffffffff1673ffffffffffffffffffffffffffffffffffffffff16815260200190815260200160002060008373ffffffffffffffffffffffffffffffffffffffff1673ffffffffffffffffffffffffffffffffffffffff16815260200190815260200160002060009054906101000a900460ff16905092915050565b6118c282826115eb565b61199457600160008084815260200190815260200160002060000160008373ffffffffffffffffffffffffffffffffffffffff1673ffffffffffffffffffffffffffffffffffffffff16815260200190815260200160002060006101000a81548160ff021916908315150217905550611939611aae565b73ffffffffffffffffffffffffffffffffffffffff168173ffffffffffffffffffffffffffffffffffffffff16837f2f8788117e7eff1d82e926ec794901d17c78024a50270940304540a733656f0d60405160405180910390a45b5050565b60006119c0836000018373ffffffffffffffffffffffffffffffffffffffff1660001b61262f565b905092915050565b60007f780e9d63000000000000000000000000000000000000000000000000000000007bffffffffffffffffffffffffffffffffffffffffffffffffffffffff1916827bffffffffffffffffffffffffffffffffffffffffffffffffffffffff19161480611a3b5750611a3a8261269f565b5b9050919050565b60008073ffffffffffffffffffffffffffffffffffffffff166004600084815260200190815260200160002060009054906101000a900473ffffffffffffffffffffffffffffffffffffffff1673ffffffffffffffffffffffffffffffffffffffff1614159050919050565b600033905090565b816006600083815260200190815260200160002060006101000a81548173ffffffffffffffffffffffffffffffffffffffff021916908373ffffffffffffffffffffffffffffffffffffffff160217905550808273ffffffffffffffffffffffffffffffffffffffff16611b2983611348565b73ffffffffffffffffffffffffffffffffffffffff167f8c5be1e5ebec7d5bd14f71427d1e84f3dd0314c0f7b2291e5b200ac8c7c3b92560405160405180910390a45050565b6000611b7a82611a42565b611bb9576040517f08c379a0000000000000000000000000000000000000000000000000000000008152600401611bb090614773565b60405180910390fd5b6000611bc483611348565b90508073ffffffffffffffffffffffffffffffffffffffff168473ffffffffffffffffffffffffffffffffffffffff161480611c065750611c058185611824565b5b80611c4457508373ffffffffffffffffffffffffffffffffffffffff16611c2c84610731565b73ffffffffffffffffffffffffffffffffffffffff16145b91505092915050565b8273ffffffffffffffffffffffffffffffffffffffff16611c6d82611348565b73ffffffffffffffffffffffffffffffffffffffff1614611cc3576040517f08c379a0000000000000000000000000000000000000000000000000000000008152600401611cba906146d3565b60405180910390fd5b600073ffffffffffffffffffffffffffffffffffffffff168273ffffffffffffffffffffffffffffffffffffffff161415611d33576040517f08c379a0000000000000000000000000000000000000000000000000000000008152600401611d2a90614733565b60405180910390fd5b611d3e838383612781565b611d49600082611ab6565b6001600560008573ffffffffffffffffffffffffffffffffffffffff1673ffffffffffffffffffffffffffffffffffffffff1681526020019081526020016000206000828254611d999190614b2a565b925050819055506001600560008473ffffffffffffffffffffffffffffffffffffffff1673ffffffffffffffffffffffffffffffffffffffff1681526020019081526020016000206000828254611df09190614a49565b92505081905550816004600083815260200190815260200160002060006101000a81548173ffffffffffffffffffffffffffffffffffffffff021916908373ffffffffffffffffffffffffffffffffffffffff160217905550808273ffffffffffffffffffffffffffffffffffffffff168473ffffffffffffffffffffffffffffffffffffffff167fddf252ad1be2c89b69c2b068fc378daa952ba7f163c4a11628f55a4df523b3ef60405160405180910390a4611eaf838383612791565b505050565b611ec581611ec0611aae565b612796565b50565b611ed282826118b8565b611ef7816001600085815260200190815260200160002061199890919063ffffffff16565b505050565b611f068282612833565b611f2b816001600085815260200190815260200160002061291490919063ffffffff16565b505050565b611f38611331565b611f77576040517f08c379a0000000000000000000000000000000000000000000000000000000008152600401611f6e90614673565b60405180910390fd5b6000600c60006101000a81548160ff0219169083151502179055507f5db9ee0a495bf2e6ff9c91a7834c1ba4fdd244a5e8aa4e537bd38aeae4b073aa611fbb611aae565b604051611fc8919061451a565b60405180910390a1565b6000611fdd82611348565b9050611feb81600084612781565b611ff6600083611ab6565b6001600560008373ffffffffffffffffffffffffffffffffffffffff1673ffffffffffffffffffffffffffffffffffffffff16815260200190815260200160002060008282546120469190614b2a565b925050819055506004600083815260200190815260200160002060006101000a81549073ffffffffffffffffffffffffffffffffffffffff021916905581600073ffffffffffffffffffffffffffffffffffffffff168273ffffffffffffffffffffffffffffffffffffffff167fddf252ad1be2c89b69c2b068fc378daa952ba7f163c4a11628f55a4df523b3ef60405160405180910390a46120eb81600084612791565b5050565b600081600001549050919050565b600073ffffffffffffffffffffffffffffffffffffffff168273ffffffffffffffffffffffffffffffffffffffff16141561216d576040517f08c379a000000000000000000000000000000000000000000000000000000000815260040161216490614813565b60405180910390fd5b61217681611a42565b156121b6576040517f08c379a00000000000000000000000000000000000000000000000000000000081526004016121ad906146f3565b60405180910390fd5b6121c260008383612781565b6001600560008473ffffffffffffffffffffffffffffffffffffffff1673ffffffffffffffffffffffffffffffffffffffff16815260200190815260200160002060008282546122129190614a49565b92505081905550816004600083815260200190815260200160002060006101000a81548173ffffffffffffffffffffffffffffffffffffffff021916908373ffffffffffffffffffffffffffffffffffffffff160217905550808273ffffffffffffffffffffffffffffffffffffffff16600073ffffffffffffffffffffffffffffffffffffffff167fddf252ad1be2c89b69c2b068fc378daa952ba7f163c4a11628f55a4df523b3ef60405160405180910390a46122d360008383612791565b5050565b6001816000016000828254019250508190555050565b6122f5611331565b15612335576040517f08c379a000000000000000000000000000000000000000000000000000000000815260040161232c90614793565b60405180910390fd5b6001600c60006101000a81548160ff0219169083151502179055507f62e78cea01bee320cd4e420270b5ea74000d11b0c9f74754ebdbfc544b05a258612379611aae565b604051612386919061451a565b60405180910390a1565b600061239f8360000183612944565b60001c905092915050565b8173ffffffffffffffffffffffffffffffffffffffff168373ffffffffffffffffffffffffffffffffffffffff161415612419576040517f08c379a000000000000000000000000000000000000000000000000000000000815260040161241090614753565b60405180910390fd5b80600760008573ffffffffffffffffffffffffffffffffffffffff1673ffffffffffffffffffffffffffffffffffffffff16815260200190815260200160002060008473ffffffffffffffffffffffffffffffffffffffff1673ffffffffffffffffffffffffffffffffffffffff16815260200190815260200160002060006101000a81548160ff0219169083151502179055508173ffffffffffffffffffffffffffffffffffffffff168373ffffffffffffffffffffffffffffffffffffffff167f17307eab39ab6107e8899845ad3d59bd9653f200f220920489ca2b5937696c318360405161250a9190614581565b60405180910390a3505050565b612522848484611c4d565b61252e84848484612995565b61256d576040517f08c379a0000000000000000000000000000000000000000000000000000000008152600401612564906146b3565b60405180910390fd5b50505050565b606061257e82611a42565b6125bd576040517f08c379a00000000000000000000000000000000000000000000000000000000081526004016125b490614853565b60405180910390fd5b60006125c7612b2c565b905060008151116125e75760405180602001604052806000815250612612565b806125f184612bbe565b60405160200161260292919061449a565b6040516020818303038152906040525b915050919050565b600061262882600001612d6b565b9050919050565b600061263b8383612d7c565b612694578260000182908060018154018082558091505060019003906000526020600020016000909190919091505582600001805490508360010160008481526020019081526020016000208190555060019050612699565b600090505b92915050565b60007f80ac58cd000000000000000000000000000000000000000000000000000000007bffffffffffffffffffffffffffffffffffffffffffffffffffffffff1916827bffffffffffffffffffffffffffffffffffffffffffffffffffffffff1916148061276a57507f5b5e139f000000000000000000000000000000000000000000000000000000007bffffffffffffffffffffffffffffffffffffffffffffffffffffffff1916827bffffffffffffffffffffffffffffffffffffffffffffffffffffffff1916145b8061277a575061277982612d9f565b5b9050919050565b61278c838383612e19565b505050565b505050565b6127a082826115eb565b61282f576127c58173ffffffffffffffffffffffffffffffffffffffff166014612e71565b6127d38360001c6020612e71565b6040516020016127e49291906144e0565b6040516020818303038152906040526040517f08c379a000000000000000000000000000000000000000000000000000000000815260040161282691906145b7565b60405180910390fd5b5050565b61283d82826115eb565b1561291057600080600084815260200190815260200160002060000160008373ffffffffffffffffffffffffffffffffffffffff1673ffffffffffffffffffffffffffffffffffffffff16815260200190815260200160002060006101000a81548160ff0219169083151502179055506128b5611aae565b73ffffffffffffffffffffffffffffffffffffffff168173ffffffffffffffffffffffffffffffffffffffff16837ff6391f5c32d9c69d2a47ea670b442974b53935d1edc7fd64eb21e047a839171b60405160405180910390a45b5050565b600061293c836000018373ffffffffffffffffffffffffffffffffffffffff1660001b61316b565b905092915050565b6000826000018281548110612982577f4e487b7100000000000000000000000000000000000000000000000000000000600052603260045260246000fd5b9060005260206000200154905092915050565b60006129b68473ffffffffffffffffffffffffffffffffffffffff166132f1565b15612b1f578373ffffffffffffffffffffffffffffffffffffffff1663150b7a026129df611aae565b8786866040518563ffffffff1660e01b8152600401612a019493929190614535565b602060405180830381600087803b158015612a1b57600080fd5b505af1925050508015612a4c57506040513d601f19601f82011682018060405250810190612a499190613ceb565b60015b612acf573d8060008114612a7c576040519150601f19603f3d011682016040523d82523d6000602084013e612a81565b606091505b50600081511415612ac7576040517f08c379a0000000000000000000000000000000000000000000000000000000008152600401612abe906146b3565b60405180910390fd5b805181602001fd5b63150b7a0260e01b7bffffffffffffffffffffffffffffffffffffffffffffffffffffffff1916817bffffffffffffffffffffffffffffffffffffffffffffffffffffffff191614915050612b24565b600190505b949350505050565b6060600e8054612b3b90614c48565b80601f0160208091040260200160405190810160405280929190818152602001828054612b6790614c48565b8015612bb45780601f10612b8957610100808354040283529160200191612bb4565b820191906000526020600020905b815481529060010190602001808311612b9757829003601f168201915b5050505050905090565b60606000821415612c06576040518060400160405280600181526020017f30000000000000000000000000000000000000000000000000000000000000008152509050612d66565b600082905060005b60008214612c38578080612c2190614cab565b915050600a82612c319190614a9f565b9150612c0e565b60008167ffffffffffffffff811115612c7a577f4e487b7100000000000000000000000000000000000000000000000000000000600052604160045260246000fd5b6040519080825280601f01601f191660200182016040528015612cac5781602001600182028036833780820191505090505b5090505b60008514612d5f57600182612cc59190614b2a565b9150600a85612cd49190614cf4565b6030612ce09190614a49565b60f81b818381518110612d1c577f4e487b7100000000000000000000000000000000000000000000000000000000600052603260045260246000fd5b60200101907effffffffffffffffffffffffffffffffffffffffffffffffffffffffffffff1916908160001a905350600a85612d589190614a9f565b9450612cb0565b8093505050505b919050565b600081600001805490509050919050565b600080836001016000848152602001908152602001600020541415905092915050565b60007f5a05180f000000000000000000000000000000000000000000000000000000007bffffffffffffffffffffffffffffffffffffffffffffffffffffffff1916827bffffffffffffffffffffffffffffffffffffffffffffffffffffffff19161480612e125750612e1182613314565b5b9050919050565b612e2483838361338e565b612e2c611331565b15612e6c576040517f08c379a0000000000000000000000000000000000000000000000000000000008152600401612e6390614653565b60405180910390fd5b505050565b606060006002836002612e849190614ad0565b612e8e9190614a49565b67ffffffffffffffff811115612ecd577f4e487b7100000000000000000000000000000000000000000000000000000000600052604160045260246000fd5b6040519080825280601f01601f191660200182016040528015612eff5781602001600182028036833780820191505090505b5090507f300000000000000000000000000000000000000000000000000000000000000081600081518110612f5d577f4e487b7100000000000000000000000000000000000000000000000000000000600052603260045260246000fd5b60200101907effffffffffffffffffffffffffffffffffffffffffffffffffffffffffffff1916908160001a9053507f780000000000000000000000000000000000000000000000000000000000000081600181518110612fe7577f4e487b7100000000000000000000000000000000000000000000000000000000600052603260045260246000fd5b60200101907effffffffffffffffffffffffffffffffffffffffffffffffffffffffffffff1916908160001a905350600060018460026130279190614ad0565b6130319190614a49565b90505b600181111561311d577f3031323334353637383961626364656600000000000000000000000000000000600f861660108110613099577f4e487b7100000000000000000000000000000000000000000000000000000000600052603260045260246000fd5b1a60f81b8282815181106130d6577f4e487b7100000000000000000000000000000000000000000000000000000000600052603260045260246000fd5b60200101907effffffffffffffffffffffffffffffffffffffffffffffffffffffffffffff1916908160001a905350600485901c94508061311690614c1e565b9050613034565b5060008414613161576040517f08c379a000000000000000000000000000000000000000000000000000000000815260040161315890614633565b60405180910390fd5b8091505092915050565b600080836001016000848152602001908152602001600020549050600081146132e557600060018261319d9190614b2a565b90506000600186600001805490506131b59190614b2a565b90508181146132705760008660000182815481106131fc577f4e487b7100000000000000000000000000000000000000000000000000000000600052603260045260246000fd5b9060005260206000200154905080876000018481548110613246577f4e487b7100000000000000000000000000000000000000000000000000000000600052603260045260246000fd5b90600052602060002001819055508387600101600083815260200190815260200160002081905550505b856000018054806132aa577f4e487b7100000000000000000000000000000000000000000000000000000000600052603160045260246000fd5b6001900381819060005260206000200160009055905585600101600086815260200190815260200160002060009055600193505050506132eb565b60009150505b92915050565b6000808273ffffffffffffffffffffffffffffffffffffffff163b119050919050565b60007f7965db0b000000000000000000000000000000000000000000000000000000007bffffffffffffffffffffffffffffffffffffffffffffffffffffffff1916827bffffffffffffffffffffffffffffffffffffffffffffffffffffffff191614806133875750613386826134a2565b5b9050919050565b61339983838361350c565b600073ffffffffffffffffffffffffffffffffffffffff168373ffffffffffffffffffffffffffffffffffffffff1614156133dc576133d781613511565b61341b565b8173ffffffffffffffffffffffffffffffffffffffff168373ffffffffffffffffffffffffffffffffffffffff161461341a57613419838261355a565b5b5b600073ffffffffffffffffffffffffffffffffffffffff168273ffffffffffffffffffffffffffffffffffffffff16141561345e57613459816136c7565b61349d565b8273ffffffffffffffffffffffffffffffffffffffff168273ffffffffffffffffffffffffffffffffffffffff161461349c5761349b828261380a565b5b5b505050565b60007f01ffc9a7000000000000000000000000000000000000000000000000000000007bffffffffffffffffffffffffffffffffffffffffffffffffffffffff1916827bffffffffffffffffffffffffffffffffffffffffffffffffffffffff1916149050919050565b505050565b600a80549050600b600083815260200190815260200160002081905550600a81908060018154018082558091505060019003906000526020600020016000909190919091505550565b600060016135678461148a565b6135719190614b2a565b9050600060096000848152602001908152602001600020549050818114613656576000600860008673ffffffffffffffffffffffffffffffffffffffff1673ffffffffffffffffffffffffffffffffffffffff168152602001908152602001600020600084815260200190815260200160002054905080600860008773ffffffffffffffffffffffffffffffffffffffff1673ffffffffffffffffffffffffffffffffffffffff168152602001908152602001600020600084815260200190815260200160002081905550816009600083815260200190815260200160002081905550505b6009600084815260200190815260200160002060009055600860008573ffffffffffffffffffffffffffffffffffffffff1673ffffffffffffffffffffffffffffffffffffffff16815260200190815260200160002060008381526020019081526020016000206000905550505050565b60006001600a805490506136db9190614b2a565b90506000600b60008481526020019081526020016000205490506000600a8381548110613731577f4e487b7100000000000000000000000000000000000000000000000000000000600052603260045260246000fd5b9060005260206000200154905080600a8381548110613779577f4e487b7100000000000000000000000000000000000000000000000000000000600052603260045260246000fd5b906000526020600020018190555081600b600083815260200190815260200160002081905550600b600085815260200190815260200160002060009055600a8054806137ee577f4e487b7100000000000000000000000000000000000000000000000000000000600052603160045260246000fd5b6001900381819060005260206000200160009055905550505050565b60006138158361148a565b905081600860008573ffffffffffffffffffffffffffffffffffffffff1673ffffffffffffffffffffffffffffffffffffffff168152602001908152602001600020600083815260200190815260200160002081905550806009600084815260200190815260200160002081905550505050565b82805461389590614c48565b90600052602060002090601f0160209004810192826138b757600085556138fe565b82601f106138d057805160ff19168380011785556138fe565b828001600101855582156138fe579182015b828111156138fd5782518255916020019190600101906138e2565b5b50905061390b919061390f565b5090565b5b80821115613928576000816000905550600101613910565b5090565b600061393f61393a84614993565b61496e565b90508281526020810184848401111561395757600080fd5b613962848285614bdc565b509392505050565b600061397d613978846149c4565b61496e565b90508281526020810184848401111561399557600080fd5b6139a0848285614bdc565b509392505050565b6000813590506139b781615540565b92915050565b6000813590506139cc81615557565b92915050565b6000813590506139e18161556e565b92915050565b6000813590506139f681615585565b92915050565b600081519050613a0b81615585565b92915050565b600082601f830112613a2257600080fd5b8135613a3284826020860161392c565b91505092915050565b600082601f830112613a4c57600080fd5b8135613a5c84826020860161396a565b91505092915050565b600081359050613a748161559c565b92915050565b600060208284031215613a8c57600080fd5b6000613a9a848285016139a8565b91505092915050565b60008060408385031215613ab657600080fd5b6000613ac4858286016139a8565b9250506020613ad5858286016139a8565b9150509250929050565b600080600060608486031215613af457600080fd5b6000613b02868287016139a8565b9350506020613b13868287016139a8565b9250506040613b2486828701613a65565b9150509250925092565b60008060008060808587031215613b4457600080fd5b6000613b52878288016139a8565b9450506020613b63878288016139a8565b9350506040613b7487828801613a65565b925050606085013567ffffffffffffffff811115613b9157600080fd5b613b9d87828801613a11565b91505092959194509250565b60008060408385031215613bbc57600080fd5b6000613bca858286016139a8565b9250506020613bdb858286016139bd565b9150509250929050565b60008060408385031215613bf857600080fd5b6000613c06858286016139a8565b9250506020613c1785828601613a65565b9150509250929050565b600060208284031215613c3357600080fd5b6000613c41848285016139d2565b91505092915050565b60008060408385031215613c5d57600080fd5b6000613c6b858286016139d2565b9250506020613c7c858286016139a8565b9150509250929050565b60008060408385031215613c9957600080fd5b6000613ca7858286016139d2565b9250506020613cb885828601613a65565b9150509250929050565b600060208284031215613cd457600080fd5b6000613ce2848285016139e7565b91505092915050565b600060208284031215613cfd57600080fd5b6000613d0b848285016139fc565b91505092915050565b6000806000806000806000806000806101408b8d031215613d3457600080fd5b60008b013567ffffffffffffffff811115613d4e57600080fd5b613d5a8d828e01613a3b565b9a505060208b013567ffffffffffffffff811115613d7757600080fd5b613d838d828e01613a3b565b9950506040613d948d828e01613a65565b9850506060613da58d828e01613a65565b97505060808b013567ffffffffffffffff811115613dc257600080fd5b613dce8d828e01613a3b565b96505060a08b013567ffffffffffffffff811115613deb57600080fd5b613df78d828e01613a3b565b95505060c08b013567ffffffffffffffff811115613e1457600080fd5b613e208d828e01613a3b565b94505060e08b013567ffffffffffffffff811115613e3d57600080fd5b613e498d828e01613a3b565b9350506101008b013567ffffffffffffffff811115613e6757600080fd5b613e738d828e01613a3b565b9250506101208b013567ffffffffffffffff811115613e9157600080fd5b613e9d8d828e01613a3b565b9150509295989b9194979a5092959850565b600060208284031215613ec157600080fd5b6000613ecf84828501613a65565b91505092915050565b613ee181614b5e565b82525050565b613ef081614b70565b82525050565b613eff81614b7c565b82525050565b6000613f10826149f5565b613f1a8185614a0b565b9350613f2a818560208601614beb565b613f3381614de1565b840191505092915050565b6000613f4982614a00565b613f538185614a1c565b9350613f63818560208601614beb565b613f6c81614de1565b840191505092915050565b6000613f8282614a00565b613f8c8185614a2d565b9350613f9c818560208601614beb565b613fa581614de1565b840191505092915050565b6000613fbb82614a00565b613fc58185614a3e565b9350613fd5818560208601614beb565b80840191505092915050565b6000613fee602083614a2d565b9150613ff982614df2565b602082019050919050565b6000614011602b83614a2d565b915061401c82614e1b565b604082019050919050565b6000614034601483614a2d565b915061403f82614e6a565b602082019050919050565b6000614057602b83614a2d565b915061406282614e93565b604082019050919050565b600061407a603283614a2d565b915061408582614ee2565b604082019050919050565b600061409d602583614a2d565b91506140a882614f31565b604082019050919050565b60006140c0601c83614a2d565b91506140cb82614f80565b602082019050919050565b60006140e3603e83614a2d565b91506140ee82614fa9565b604082019050919050565b6000614106602483614a2d565b915061411182614ff8565b604082019050919050565b6000614129601983614a2d565b915061413482615047565b602082019050919050565b600061414c602c83614a2d565b915061415782615070565b604082019050919050565b600061416f601083614a2d565b915061417a826150bf565b602082019050919050565b6000614192603883614a2d565b915061419d826150e8565b604082019050919050565b60006141b5602a83614a2d565b91506141c082615137565b604082019050919050565b60006141d8602983614a2d565b91506141e382615186565b604082019050919050565b60006141fb602083614a2d565b9150614206826151d5565b602082019050919050565b600061421e602c83614a2d565b9150614229826151fe565b604082019050919050565b6000614241600583614a3e565b915061424c8261524d565b600582019050919050565b6000614264602f83614a2d565b915061426f82615276565b604082019050919050565b6000614287602183614a2d565b9150614292826152c5565b604082019050919050565b60006142aa603183614a2d565b91506142b582615314565b604082019050919050565b60006142cd602c83614a2d565b91506142d882615363565b604082019050919050565b60006142f0601783614a3e565b91506142fb826153b2565b601782019050919050565b6000614313603d83614a2d565b915061431e826153db565b604082019050919050565b6000614336603083614a2d565b91506143418261542a565b604082019050919050565b6000614359604083614a2d565b915061436482615479565b604082019050919050565b600061437c601183614a3e565b9150614387826154c8565b601182019050919050565b600061439f602f83614a2d565b91506143aa826154f1565b604082019050919050565b600060808301600083015184820360008601526143d28282613f3e565b915050602083015184820360208601526143ec8282613f3e565b915050604083015184820360408601526144068282613f3e565b91505060608301518482036060860152614420828261442d565b9150508091505092915050565b6000606083016000830151848203600086015261444a8282613f3e565b915050602083015184820360208601526144648282613f3e565b9150506040830151848203604086015261447e8282613f3e565b9150508091505092915050565b61449481614bd2565b82525050565b60006144a68285613fb0565b91506144b28284613fb0565b91508190509392505050565b60006144ca8284613fb0565b91506144d582614234565b915081905092915050565b60006144eb826142e3565b91506144f78285613fb0565b91506145028261436f565b915061450e8284613fb0565b91508190509392505050565b600060208201905061452f6000830184613ed8565b92915050565b600060808201905061454a6000830187613ed8565b6145576020830186613ed8565b614564604083018561448b565b81810360608301526145768184613f05565b905095945050505050565b60006020820190506145966000830184613ee7565b92915050565b60006020820190506145b16000830184613ef6565b92915050565b600060208201905081810360008301526145d18184613f77565b905092915050565b600060808201905081810360008301526145f38187613f77565b905081810360208301526146078186613f77565b9050614616604083018561448b565b818103606083015261462881846143b5565b905095945050505050565b6000602082019050818103600083015261464c81613fe1565b9050919050565b6000602082019050818103600083015261466c81614004565b9050919050565b6000602082019050818103600083015261468c81614027565b9050919050565b600060208201905081810360008301526146ac8161404a565b9050919050565b600060208201905081810360008301526146cc8161406d565b9050919050565b600060208201905081810360008301526146ec81614090565b9050919050565b6000602082019050818103600083015261470c816140b3565b9050919050565b6000602082019050818103600083015261472c816140d6565b9050919050565b6000602082019050818103600083015261474c816140f9565b9050919050565b6000602082019050818103600083015261476c8161411c565b9050919050565b6000602082019050818103600083015261478c8161413f565b9050919050565b600060208201905081810360008301526147ac81614162565b9050919050565b600060208201905081810360008301526147cc81614185565b9050919050565b600060208201905081810360008301526147ec816141a8565b9050919050565b6000602082019050818103600083015261480c816141cb565b9050919050565b6000602082019050818103600083015261482c816141ee565b9050919050565b6000602082019050818103600083015261484c81614211565b9050919050565b6000602082019050818103600083015261486c81614257565b9050919050565b6000602082019050818103600083015261488c8161427a565b9050919050565b600060208201905081810360008301526148ac8161429d565b9050919050565b600060208201905081810360008301526148cc816142c0565b9050919050565b600060208201905081810360008301526148ec81614306565b9050919050565b6000602082019050818103600083015261490c81614329565b9050919050565b6000602082019050818103600083015261492c8161434c565b9050919050565b6000602082019050818103600083015261494c81614392565b9050919050565b6000602082019050614968600083018461448b565b92915050565b6000614978614989565b90506149848282614c7a565b919050565b6000604051905090565b600067ffffffffffffffff8211156149ae576149ad614db2565b5b6149b782614de1565b9050602081019050919050565b600067ffffffffffffffff8211156149df576149de614db2565b5b6149e882614de1565b9050602081019050919050565b600081519050919050565b600081519050919050565b600082825260208201905092915050565b600082825260208201905092915050565b600082825260208201905092915050565b600081905092915050565b6000614a5482614bd2565b9150614a5f83614bd2565b9250827fffffffffffffffffffffffffffffffffffffffffffffffffffffffffffffffff03821115614a9457614a93614d25565b5b828201905092915050565b6000614aaa82614bd2565b9150614ab583614bd2565b925082614ac557614ac4614d54565b5b828204905092915050565b6000614adb82614bd2565b9150614ae683614bd2565b9250817fffffffffffffffffffffffffffffffffffffffffffffffffffffffffffffffff0483118215151615614b1f57614b1e614d25565b5b828202905092915050565b6000614b3582614bd2565b9150614b4083614bd2565b925082821015614b5357614b52614d25565b5b828203905092915050565b6000614b6982614bb2565b9050919050565b60008115159050919050565b6000819050919050565b60007fffffffff0000000000000000000000000000000000000000000000000000000082169050919050565b600073ffffffffffffffffffffffffffffffffffffffff82169050919050565b6000819050919050565b82818337600083830152505050565b60005b83811015614c09578082015181840152602081019050614bee565b83811115614c18576000848401525b50505050565b6000614c2982614bd2565b91506000821415614c3d57614c3c614d25565b5b600182039050919050565b60006002820490506001821680614c6057607f821691505b60208210811415614c7457614c73614d83565b5b50919050565b614c8382614de1565b810181811067ffffffffffffffff82111715614ca257614ca1614db2565b5b80604052505050565b6000614cb682614bd2565b91507fffffffffffffffffffffffffffffffffffffffffffffffffffffffffffffffff821415614ce957614ce8614d25565b5b600182019050919050565b6000614cff82614bd2565b9150614d0a83614bd2565b925082614d1a57614d19614d54565b5b828206905092915050565b7f4e487b7100000000000000000000000000000000000000000000000000000000600052601160045260246000fd5b7f4e487b7100000000000000000000000000000000000000000000000000000000600052601260045260246000fd5b7f4e487b7100000000000000000000000000000000000000000000000000000000600052602260045260246000fd5b7f4e487b7100000000000000000000000000000000000000000000000000000000600052604160045260246000fd5b6000601f19601f8301169050919050565b7f537472696e67733a20686578206c656e67746820696e73756666696369656e74600082015250565b7f4552433732315061757361626c653a20746f6b656e207472616e73666572207760008201527f68696c6520706175736564000000000000000000000000000000000000000000602082015250565b7f5061757361626c653a206e6f7420706175736564000000000000000000000000600082015250565b7f455243373231456e756d657261626c653a206f776e657220696e646578206f7560008201527f74206f6620626f756e6473000000000000000000000000000000000000000000602082015250565b7f4552433732313a207472616e7366657220746f206e6f6e20455243373231526560008201527f63656976657220696d706c656d656e7465720000000000000000000000000000602082015250565b7f4552433732313a207472616e736665722066726f6d20696e636f72726563742060008201527f6f776e6572000000000000000000000000000000000000000000000000000000602082015250565b7f4552433732313a20746f6b656e20616c7265616479206d696e74656400000000600082015250565b7f4552433732315072657365744d696e7465725061757365724175746f49643a2060008201527f6d75737420686176652070617573657220726f6c6520746f2070617573650000602082015250565b7f4552433732313a207472616e7366657220746f20746865207a65726f2061646460008201527f7265737300000000000000000000000000000000000000000000000000000000602082015250565b7f4552433732313a20617070726f766520746f2063616c6c657200000000000000600082015250565b7f4552433732313a206f70657261746f7220717565727920666f72206e6f6e657860008201527f697374656e7420746f6b656e0000000000000000000000000000000000000000602082015250565b7f5061757361626c653a2070617573656400000000000000000000000000000000600082015250565b7f4552433732313a20617070726f76652063616c6c6572206973206e6f74206f7760008201527f6e6572206e6f7220617070726f76656420666f7220616c6c0000000000000000602082015250565b7f4552433732313a2062616c616e636520717565727920666f7220746865207a6560008201527f726f206164647265737300000000000000000000000000000000000000000000602082015250565b7f4552433732313a206f776e657220717565727920666f72206e6f6e657869737460008201527f656e7420746f6b656e0000000000000000000000000000000000000000000000602082015250565b7f4552433732313a206d696e7420746f20746865207a65726f2061646472657373600082015250565b7f4552433732313a20617070726f76656420717565727920666f72206e6f6e657860008201527f697374656e7420746f6b656e0000000000000000000000000000000000000000602082015250565b7f2e6a736f6e000000000000000000000000000000000000000000000000000000600082015250565b7f4552433732314d657461646174613a2055524920717565727920666f72206e6f60008201527f6e6578697374656e7420746f6b656e0000000000000000000000000000000000602082015250565b7f4552433732313a20617070726f76616c20746f2063757272656e74206f776e6560008201527f7200000000000000000000000000000000000000000000000000000000000000602082015250565b7f4552433732313a207472616e736665722063616c6c6572206973206e6f74206f60008201527f776e6572206e6f7220617070726f766564000000000000000000000000000000602082015250565b7f455243373231456e756d657261626c653a20676c6f62616c20696e646578206f60008201527f7574206f6620626f756e64730000000000000000000000000000000000000000602082015250565b7f416363657373436f6e74726f6c3a206163636f756e7420000000000000000000600082015250565b7f4552433732315072657365744d696e7465725061757365724175746f49643a2060008201527f6d7573742068617665206d696e74657220726f6c6520746f206d696e74000000602082015250565b7f4552433732314275726e61626c653a2063616c6c6572206973206e6f74206f7760008201527f6e6572206e6f7220617070726f76656400000000000000000000000000000000602082015250565b7f4552433732315072657365744d696e7465725061757365724175746f49643a2060008201527f6d75737420686176652070617573657220726f6c6520746f20756e7061757365602082015250565b7f206973206d697373696e6720726f6c6520000000000000000000000000000000600082015250565b7f416363657373436f6e74726f6c3a2063616e206f6e6c792072656e6f756e636560008201527f20726f6c657320666f722073656c660000000000000000000000000000000000602082015250565b61554981614b5e565b811461555457600080fd5b50565b61556081614b70565b811461556b57600080fd5b50565b61557781614b7c565b811461558257600080fd5b50565b61558e81614b86565b811461559957600080fd5b50565b6155a581614bd2565b81146155b057600080fd5b5056fea2646970667358221220182a5687f1f9d5570da278bcea74e0ce2dd26d1434ee432ed87dcde192c5867c64736f6c6343000803003368747470733a2f2f676174657761792e70696e6174612e636c6f75642f697066732f",
  "immutableReferences": {},
  "source": "// contracts/GameItem.sol\r\n// SPDX-License-Identifier: MIT\r\npragma solidity >=0.4.22 <0.9.0;\r\n\r\nimport \"@openzeppelin/contracts/token/ERC721/presets/ERC721PresetMinterPauserAutoId.sol\";\r\n\r\ncontract WalmartNFT is ERC721PresetMinterPauserAutoId {\r\n    constructor()\r\n        ERC721PresetMinterPauserAutoId(\r\n            \"WalmartNFT\",\r\n            \"UAU\",\r\n            \"https://gateway.pinata.cloud/ipfs/\"\r\n        )\r\n    {}\r\n\r\n    function tokenURI(uint256 tokenId)\r\n        public\r\n        view\r\n        virtual\r\n        override\r\n        returns (string memory)\r\n    {\r\n        return string(abi.encodePacked(super.tokenURI(tokenId), \".json\"));\r\n    }\r\n\r\n    uint256 totalWalmartEarning = 0;\r\n    struct Store {\r\n        string storeType;\r\n        string storeName;\r\n        string storeId;\r\n    }\r\n    struct StoreProduct {\r\n        string productName;\r\n        string productID;\r\n        string uri;\r\n        Store store;\r\n    }\r\n    struct Transection {\r\n        string dateOfTransection;\r\n        string transectionPerformedBy;\r\n        uint256 totalAmountPayed;\r\n        StoreProduct storeProduct;\r\n    }\r\n    mapping(address => Transection) public walmartTransections;\r\n\r\n    function WalmartPaymentInNFT(\r\n        string memory dateOfTransection,\r\n        string memory transectionPerformedBy,\r\n        uint256 totalAmountPayed,\r\n        uint256 productAmount,\r\n        string memory productName,\r\n        string memory productID,\r\n        string memory productURI,\r\n        string memory storeType,\r\n        string memory storeName,\r\n        string memory storeId\r\n    ) public {\r\n        // Validate Transection :: =>\r\n        //    1) validate Amount payed\r\n        //    2) productName should not be empty\r\n        //    3) productID should not be empty\r\n        //    4) storeName should not be empty\r\n        //    5) storeId should not be empty\r\n        //    6) dateOfTransection should not be empty\r\n        //    7) transectionPerformedBy should not be empty\r\n\r\n        require(productAmount == totalAmountPayed);\r\n        require(bytes(productName).length > 0);\r\n        require(bytes(productID).length > 0);\r\n        require(bytes(storeName).length > 0);\r\n        require(bytes(storeId).length > 0);\r\n        require(bytes(dateOfTransection).length > 0);\r\n        require(bytes(transectionPerformedBy).length > 0);\r\n\r\n        // Store , Store Product , Transection objects ::=>\r\n        Store memory store = Store(storeType, storeName, storeId);\r\n        StoreProduct memory storeProduct = StoreProduct(\r\n            productName,\r\n            productID,\r\n            productURI,\r\n            store\r\n        );\r\n        Transection memory transection = Transection(\r\n            dateOfTransection,\r\n            transectionPerformedBy,\r\n            totalAmountPayed,\r\n            storeProduct\r\n        );\r\n        // Object Of transection stored in  walmartTransection in smartcontract\r\n        walmartTransections[msg.sender] = transection;\r\n\r\n        totalWalmartEarning = totalWalmartEarning + totalAmountPayed;\r\n    }\r\n}\r\n",
  "sourcePath": "G:\\PROJECT\\Blockchain Project\\contracts\\WalmartNFT.sol",
  "compiler": {
    "name": "solc",
    "version": "0.8.3+commit.8d00100c.Emscripten.clang"
  },
  "schemaVersion": "3.4.7",
  "updatedAt": "2022-06-14T17:26:46.043Z",
  "networkType": "ethereum",
  "devdoc": {
    "kind": "dev",
    "methods": {
      "approve(address,uint256)": {
        "details": "See {IERC721-approve}."
      },
      "balanceOf(address)": {
        "details": "See {IERC721-balanceOf}."
      },
      "burn(uint256)": {
        "details": "Burns `tokenId`. See {ERC721-_burn}. Requirements: - The caller must own `tokenId` or be an approved operator."
      },
      "getApproved(uint256)": {
        "details": "See {IERC721-getApproved}."
      },
      "getRoleAdmin(bytes32)": {
        "details": "Returns the admin role that controls `role`. See {grantRole} and {revokeRole}. To change a role's admin, use {_setRoleAdmin}."
      },
      "getRoleMember(bytes32,uint256)": {
        "details": "Returns one of the accounts that have `role`. `index` must be a value between 0 and {getRoleMemberCount}, non-inclusive. Role bearers are not sorted in any particular way, and their ordering may change at any point. WARNING: When using {getRoleMember} and {getRoleMemberCount}, make sure you perform all queries on the same block. See the following https://forum.openzeppelin.com/t/iterating-over-elements-on-enumerableset-in-openzeppelin-contracts/2296[forum post] for more information."
      },
      "getRoleMemberCount(bytes32)": {
        "details": "Returns the number of accounts that have `role`. Can be used together with {getRoleMember} to enumerate all bearers of a role."
      },
      "grantRole(bytes32,address)": {
        "details": "Grants `role` to `account`. If `account` had not been already granted `role`, emits a {RoleGranted} event. Requirements: - the caller must have ``role``'s admin role."
      },
      "hasRole(bytes32,address)": {
        "details": "Returns `true` if `account` has been granted `role`."
      },
      "isApprovedForAll(address,address)": {
        "details": "See {IERC721-isApprovedForAll}."
      },
      "mint(address)": {
        "details": "Creates a new token for `to`. Its token ID will be automatically assigned (and available on the emitted {IERC721-Transfer} event), and the token URI autogenerated based on the base URI passed at construction. See {ERC721-_mint}. Requirements: - the caller must have the `MINTER_ROLE`."
      },
      "name()": {
        "details": "See {IERC721Metadata-name}."
      },
      "ownerOf(uint256)": {
        "details": "See {IERC721-ownerOf}."
      },
      "pause()": {
        "details": "Pauses all token transfers. See {ERC721Pausable} and {Pausable-_pause}. Requirements: - the caller must have the `PAUSER_ROLE`."
      },
      "paused()": {
        "details": "Returns true if the contract is paused, and false otherwise."
      },
      "renounceRole(bytes32,address)": {
        "details": "Revokes `role` from the calling account. Roles are often managed via {grantRole} and {revokeRole}: this function's purpose is to provide a mechanism for accounts to lose their privileges if they are compromised (such as when a trusted device is misplaced). If the calling account had been revoked `role`, emits a {RoleRevoked} event. Requirements: - the caller must be `account`."
      },
      "revokeRole(bytes32,address)": {
        "details": "Revokes `role` from `account`. If `account` had been granted `role`, emits a {RoleRevoked} event. Requirements: - the caller must have ``role``'s admin role."
      },
      "safeTransferFrom(address,address,uint256)": {
        "details": "See {IERC721-safeTransferFrom}."
      },
      "safeTransferFrom(address,address,uint256,bytes)": {
        "details": "See {IERC721-safeTransferFrom}."
      },
      "setApprovalForAll(address,bool)": {
        "details": "See {IERC721-setApprovalForAll}."
      },
      "supportsInterface(bytes4)": {
        "details": "See {IERC165-supportsInterface}."
      },
      "symbol()": {
        "details": "See {IERC721Metadata-symbol}."
      },
      "tokenByIndex(uint256)": {
        "details": "See {IERC721Enumerable-tokenByIndex}."
      },
      "tokenOfOwnerByIndex(address,uint256)": {
        "details": "See {IERC721Enumerable-tokenOfOwnerByIndex}."
      },
      "tokenURI(uint256)": {
        "details": "See {IERC721Metadata-tokenURI}."
      },
      "totalSupply()": {
        "details": "See {IERC721Enumerable-totalSupply}."
      },
      "transferFrom(address,address,uint256)": {
        "details": "See {IERC721-transferFrom}."
      },
      "unpause()": {
        "details": "Unpauses all token transfers. See {ERC721Pausable} and {Pausable-_unpause}. Requirements: - the caller must have the `PAUSER_ROLE`."
      }
    },
    "version": 1
  },
  "userdoc": {
    "kind": "user",
    "methods": {},
    "version": 1
  }
}