{
  "contractName": "WalmartFT",
  "abi": [
    {
      "inputs": [],
      "stateMutability": "nonpayable",
      "type": "constructor"
    },
    {
      "anonymous": false,
      "inputs": [
        {
          "indexed": true,
          "internalType": "address",
          "name": "owner",
          "type": "address"
        },
        {
          "indexed": true,
          "internalType": "address",
          "name": "spender",
          "type": "address"
        },
        {
          "indexed": false,
          "internalType": "uint256",
          "name": "value",
          "type": "uint256"
        }
      ],
      "name": "Approval",
      "type": "event"
    },
    {
      "anonymous": false,
      "inputs": [
        {
          "indexed": true,
          "internalType": "address",
          "name": "from",
          "type": "address"
        },
        {
          "indexed": true,
          "internalType": "address",
          "name": "to",
          "type": "address"
        },
        {
          "indexed": false,
          "internalType": "uint256",
          "name": "value",
          "type": "uint256"
        }
      ],
      "name": "Transfer",
      "type": "event"
    },
    {
      "inputs": [],
      "name": "INITIAL_SUPPLY",
      "outputs": [
        {
          "internalType": "uint256",
          "name": "",
          "type": "uint256"
        }
      ],
      "stateMutability": "view",
      "type": "function",
      "constant": true
    },
    {
      "inputs": [
        {
          "internalType": "address",
          "name": "owner",
          "type": "address"
        },
        {
          "internalType": "address",
          "name": "spender",
          "type": "address"
        }
      ],
      "name": "allowance",
      "outputs": [
        {
          "internalType": "uint256",
          "name": "",
          "type": "uint256"
        }
      ],
      "stateMutability": "view",
      "type": "function",
      "constant": true
    },
    {
      "inputs": [
        {
          "internalType": "address",
          "name": "spender",
          "type": "address"
        },
        {
          "internalType": "uint256",
          "name": "amount",
          "type": "uint256"
        }
      ],
      "name": "approve",
      "outputs": [
        {
          "internalType": "bool",
          "name": "",
          "type": "bool"
        }
      ],
      "stateMutability": "nonpayable",
      "type": "function"
    },
    {
      "inputs": [
        {
          "internalType": "address",
          "name": "account",
          "type": "address"
        }
      ],
      "name": "balanceOf",
      "outputs": [
        {
          "internalType": "uint256",
          "name": "",
          "type": "uint256"
        }
      ],
      "stateMutability": "view",
      "type": "function",
      "constant": true
    },
    {
      "inputs": [],
      "name": "decimals",
      "outputs": [
        {
          "internalType": "uint8",
          "name": "",
          "type": "uint8"
        }
      ],
      "stateMutability": "view",
      "type": "function",
      "constant": true
    },
    {
      "inputs": [
        {
          "internalType": "address",
          "name": "spender",
          "type": "address"
        },
        {
          "internalType": "uint256",
          "name": "subtractedValue",
          "type": "uint256"
        }
      ],
      "name": "decreaseAllowance",
      "outputs": [
        {
          "internalType": "bool",
          "name": "",
          "type": "bool"
        }
      ],
      "stateMutability": "nonpayable",
      "type": "function"
    },
    {
      "inputs": [
        {
          "internalType": "address",
          "name": "spender",
          "type": "address"
        },
        {
          "internalType": "uint256",
          "name": "addedValue",
          "type": "uint256"
        }
      ],
      "name": "increaseAllowance",
      "outputs": [
        {
          "internalType": "bool",
          "name": "",
          "type": "bool"
        }
      ],
      "stateMutability": "nonpayable",
      "type": "function"
    },
    {
      "inputs": [],
      "name": "name",
      "outputs": [
        {
          "internalType": "string",
          "name": "",
          "type": "string"
        }
      ],
      "stateMutability": "view",
      "type": "function",
      "constant": true
    },
    {
      "inputs": [],
      "name": "symbol",
      "outputs": [
        {
          "internalType": "string",
          "name": "",
          "type": "string"
        }
      ],
      "stateMutability": "view",
      "type": "function",
      "constant": true
    },
    {
      "inputs": [],
      "name": "totalSupply",
      "outputs": [
        {
          "internalType": "uint256",
          "name": "",
          "type": "uint256"
        }
      ],
      "stateMutability": "view",
      "type": "function",
      "constant": true
    },
    {
      "inputs": [
        {
          "internalType": "address",
          "name": "to",
          "type": "address"
        },
        {
          "internalType": "uint256",
          "name": "amount",
          "type": "uint256"
        }
      ],
      "name": "transfer",
      "outputs": [
        {
          "internalType": "bool",
          "name": "",
          "type": "bool"
        }
      ],
      "stateMutability": "nonpayable",
      "type": "function"
    },
    {
      "inputs": [
        {
          "internalType": "address",
          "name": "from",
          "type": "address"
        },
        {
          "internalType": "address",
          "name": "to",
          "type": "address"
        },
        {
          "internalType": "uint256",
          "name": "amount",
          "type": "uint256"
        }
      ],
      "name": "transferFrom",
      "outputs": [
        {
          "internalType": "bool",
          "name": "",
          "type": "bool"
        }
      ],
      "stateMutability": "nonpayable",
      "type": "function"
    },
    {
      "inputs": [
        {
          "internalType": "address",
          "name": "",
          "type": "address"
        }
      ],
      "name": "walmartTransections",
      "outputs": [
        {
          "internalType": "string",
          "name": "dateOfTransection",
          "type": "string"
        },
        {
          "internalType": "string",
          "name": "transectionPerformedBy",
          "type": "string"
        },
        {
          "internalType": "uint256",
          "name": "totalAmountPayed",
          "type": "uint256"
        },
        {
          "components": [
            {
              "internalType": "string",
              "name": "productName",
              "type": "string"
            },
            {
              "internalType": "string",
              "name": "productID",
              "type": "string"
            },
            {
              "internalType": "string",
              "name": "uri",
              "type": "string"
            },
            {
              "components": [
                {
                  "internalType": "string",
                  "name": "storeType",
                  "type": "string"
                },
                {
                  "internalType": "string",
                  "name": "storeName",
                  "type": "string"
                },
                {
                  "internalType": "string",
                  "name": "storeId",
                  "type": "string"
                }
              ],
              "internalType": "struct WalmartFT.Store",
              "name": "store",
              "type": "tuple"
            }
          ],
          "internalType": "struct WalmartFT.StoreProduct",
          "name": "storeProduct",
          "type": "tuple"
        }
      ],
      "stateMutability": "view",
      "type": "function",
      "constant": true
    },
    {
      "inputs": [
        {
          "internalType": "string",
          "name": "dateOfTransection",
          "type": "string"
        },
        {
          "internalType": "string",
          "name": "transectionPerformedBy",
          "type": "string"
        },
        {
          "internalType": "uint256",
          "name": "totalAmountPayed",
          "type": "uint256"
        },
        {
          "internalType": "uint256",
          "name": "productAmount",
          "type": "uint256"
        },
        {
          "internalType": "string",
          "name": "productName",
          "type": "string"
        },
        {
          "internalType": "string",
          "name": "productID",
          "type": "string"
        },
        {
          "internalType": "string",
          "name": "productURI",
          "type": "string"
        },
        {
          "internalType": "string",
          "name": "storeType",
          "type": "string"
        },
        {
          "internalType": "string",
          "name": "storeName",
          "type": "string"
        },
        {
          "internalType": "string",
          "name": "storeId",
          "type": "string"
        }
      ],
      "name": "WalmartPaymentInFT",
      "outputs": [],
      "stateMutability": "nonpayable",
      "type": "function"
    }
  ],
  "bytecode": "0x608060405264174876e80060055560006006553480156200001f57600080fd5b506040518060400160405280600b81526020017f57616c6d617274436f696e0000000000000000000000000000000000000000008152506040518060400160405280600281526020017f57430000000000000000000000000000000000000000000000000000000000008152508160039080519060200190620000a49291906200025d565b508060049080519060200190620000bd9291906200025d565b505050620000d433600554620000da60201b60201c565b620004b9565b600073ffffffffffffffffffffffffffffffffffffffff168273ffffffffffffffffffffffffffffffffffffffff1614156200014d576040517f08c379a0000000000000000000000000000000000000000000000000000000008152600401620001449062000345565b60405180910390fd5b62000161600083836200025360201b60201c565b806002600082825462000175919062000395565b92505081905550806000808473ffffffffffffffffffffffffffffffffffffffff1673ffffffffffffffffffffffffffffffffffffffff1681526020019081526020016000206000828254620001cc919062000395565b925050819055508173ffffffffffffffffffffffffffffffffffffffff16600073ffffffffffffffffffffffffffffffffffffffff167fddf252ad1be2c89b69c2b068fc378daa952ba7f163c4a11628f55a4df523b3ef8360405162000233919062000367565b60405180910390a36200024f600083836200025860201b60201c565b5050565b505050565b505050565b8280546200026b90620003fc565b90600052602060002090601f0160209004810192826200028f5760008555620002db565b82601f10620002aa57805160ff1916838001178555620002db565b82800160010185558215620002db579182015b82811115620002da578251825591602001919060010190620002bd565b5b509050620002ea9190620002ee565b5090565b5b8082111562000309576000816000905550600101620002ef565b5090565b60006200031c601f8362000384565b9150620003298262000490565b602082019050919050565b6200033f81620003f2565b82525050565b6000602082019050818103600083015262000360816200030d565b9050919050565b60006020820190506200037e600083018462000334565b92915050565b600082825260208201905092915050565b6000620003a282620003f2565b9150620003af83620003f2565b9250827fffffffffffffffffffffffffffffffffffffffffffffffffffffffffffffffff03821115620003e757620003e662000432565b5b828201905092915050565b6000819050919050565b600060028204905060018216806200041557607f821691505b602082108114156200042c576200042b62000461565b5b50919050565b7f4e487b7100000000000000000000000000000000000000000000000000000000600052601160045260246000fd5b7f4e487b7100000000000000000000000000000000000000000000000000000000600052602260045260246000fd5b7f45524332303a206d696e7420746f20746865207a65726f206164647265737300600082015250565b611eed80620004c96000396000f3fe608060405234801561001057600080fd5b50600436106100ea5760003560e01c8063395093511161008c57806395d89b411161006657806395d89b4114610276578063a457c2d714610294578063a9059cbb146102c4578063dd62ed3e146102f4576100ea565b806339509351146101e3578063513ce1711461021357806370a0823114610246576100ea565b806323b872dd116100c857806323b872dd1461015b578063260f25dc1461018b5780632ff2e9dc146101a7578063313ce567146101c5576100ea565b806306fdde03146100ef578063095ea7b31461010d57806318160ddd1461013d575b600080fd5b6100f7610324565b6040516101049190611883565b60405180910390f35b61012760048036038101906101229190611427565b6103b6565b6040516101349190611868565b60405180910390f35b6101456103d9565b60405161015291906119df565b60405180910390f35b610175600480360381019061017091906113d8565b6103e3565b6040516101829190611868565b60405180910390f35b6101a560048036038101906101a09190611463565b610412565b005b6101af610649565b6040516101bc91906119df565b60405180910390f35b6101cd61064f565b6040516101da91906119fa565b60405180910390f35b6101fd60048036038101906101f89190611427565b610658565b60405161020a9190611868565b60405180910390f35b61022d60048036038101906102289190611373565b61068f565b60405161023d94939291906118a5565b60405180910390f35b610260600480360381019061025b9190611373565b610b59565b60405161026d91906119df565b60405180910390f35b61027e610ba1565b60405161028b9190611883565b60405180910390f35b6102ae60048036038101906102a99190611427565b610c33565b6040516102bb9190611868565b60405180910390f35b6102de60048036038101906102d99190611427565b610caa565b6040516102eb9190611868565b60405180910390f35b61030e6004803603810190610309919061139c565b610ccd565b60405161031b91906119df565b60405180910390f35b60606003805461033390611b85565b80601f016020809104026020016040519081016040528092919081815260200182805461035f90611b85565b80156103ac5780601f10610381576101008083540402835291602001916103ac565b820191906000526020600020905b81548152906001019060200180831161038f57829003601f168201915b5050505050905090565b6000806103c1610d54565b90506103ce818585610d5c565b600191505092915050565b6000600254905090565b6000806103ee610d54565b90506103fb858285610f27565b610406858585610fb3565b60019150509392505050565b87871461041e57600080fd5b600086511161042c57600080fd5b600085511161043a57600080fd5b600082511161044857600080fd5b600081511161045657600080fd5b60008a511161046457600080fd5b600089511161047257600080fd5b6000604051806060016040528085815260200184815260200183815250905060006040518060800160405280898152602001888152602001878152602001838152509050600060405180608001604052808e81526020018d81526020018c815260200183815250905080600760003373ffffffffffffffffffffffffffffffffffffffff1673ffffffffffffffffffffffffffffffffffffffff168152602001908152602001600020600082015181600001908051906020019061053792919061123e565b50602082015181600101908051906020019061055492919061123e565b5060408201518160020155606082015181600301600082015181600001908051906020019061058492919061123e565b5060208201518160010190805190602001906105a192919061123e565b5060408201518160020190805190602001906105be92919061123e565b5060608201518160030160008201518160000190805190602001906105e492919061123e565b50602082015181600101908051906020019061060192919061123e565b50604082015181600201908051906020019061061e92919061123e565b50505050509050508a6006546106349190611a98565b60068190555050505050505050505050505050565b60055481565b60006012905090565b600080610663610d54565b90506106848185856106758589610ccd565b61067f9190611a98565b610d5c565b600191505092915050565b60076020528060005260406000206000915090508060000180546106b290611b85565b80601f01602080910402602001604051908101604052809291908181526020018280546106de90611b85565b801561072b5780601f106107005761010080835404028352916020019161072b565b820191906000526020600020905b81548152906001019060200180831161070e57829003601f168201915b50505050509080600101805461074090611b85565b80601f016020809104026020016040519081016040528092919081815260200182805461076c90611b85565b80156107b95780601f1061078e576101008083540402835291602001916107b9565b820191906000526020600020905b81548152906001019060200180831161079c57829003601f168201915b505050505090806002015490806003016040518060800160405290816000820180546107e490611b85565b80601f016020809104026020016040519081016040528092919081815260200182805461081090611b85565b801561085d5780601f106108325761010080835404028352916020019161085d565b820191906000526020600020905b81548152906001019060200180831161084057829003601f168201915b5050505050815260200160018201805461087690611b85565b80601f01602080910402602001604051908101604052809291908181526020018280546108a290611b85565b80156108ef5780601f106108c4576101008083540402835291602001916108ef565b820191906000526020600020905b8154815290600101906020018083116108d257829003601f168201915b5050505050815260200160028201805461090890611b85565b80601f016020809104026020016040519081016040528092919081815260200182805461093490611b85565b80156109815780601f1061095657610100808354040283529160200191610981565b820191906000526020600020905b81548152906001019060200180831161096457829003601f168201915b50505050508152602001600382016040518060600160405290816000820180546109aa90611b85565b80601f01602080910402602001604051908101604052809291908181526020018280546109d690611b85565b8015610a235780601f106109f857610100808354040283529160200191610a23565b820191906000526020600020905b815481529060010190602001808311610a0657829003601f168201915b50505050508152602001600182018054610a3c90611b85565b80601f0160208091040260200160405190810160405280929190818152602001828054610a6890611b85565b8015610ab55780601f10610a8a57610100808354040283529160200191610ab5565b820191906000526020600020905b815481529060010190602001808311610a9857829003601f168201915b50505050508152602001600282018054610ace90611b85565b80601f0160208091040260200160405190810160405280929190818152602001828054610afa90611b85565b8015610b475780601f10610b1c57610100808354040283529160200191610b47565b820191906000526020600020905b815481529060010190602001808311610b2a57829003601f168201915b50505050508152505081525050905084565b60008060008373ffffffffffffffffffffffffffffffffffffffff1673ffffffffffffffffffffffffffffffffffffffff168152602001908152602001600020549050919050565b606060048054610bb090611b85565b80601f0160208091040260200160405190810160405280929190818152602001828054610bdc90611b85565b8015610c295780601f10610bfe57610100808354040283529160200191610c29565b820191906000526020600020905b815481529060010190602001808311610c0c57829003601f168201915b5050505050905090565b600080610c3e610d54565b90506000610c4c8286610ccd565b905083811015610c91576040517f08c379a0000000000000000000000000000000000000000000000000000000008152600401610c88906119bf565b60405180910390fd5b610c9e8286868403610d5c565b60019250505092915050565b600080610cb5610d54565b9050610cc2818585610fb3565b600191505092915050565b6000600160008473ffffffffffffffffffffffffffffffffffffffff1673ffffffffffffffffffffffffffffffffffffffff16815260200190815260200160002060008373ffffffffffffffffffffffffffffffffffffffff1673ffffffffffffffffffffffffffffffffffffffff16815260200190815260200160002054905092915050565b600033905090565b600073ffffffffffffffffffffffffffffffffffffffff168373ffffffffffffffffffffffffffffffffffffffff161415610dcc576040517f08c379a0000000000000000000000000000000000000000000000000000000008152600401610dc39061199f565b60405180910390fd5b600073ffffffffffffffffffffffffffffffffffffffff168273ffffffffffffffffffffffffffffffffffffffff161415610e3c576040517f08c379a0000000000000000000000000000000000000000000000000000000008152600401610e339061191f565b60405180910390fd5b80600160008573ffffffffffffffffffffffffffffffffffffffff1673ffffffffffffffffffffffffffffffffffffffff16815260200190815260200160002060008473ffffffffffffffffffffffffffffffffffffffff1673ffffffffffffffffffffffffffffffffffffffff168152602001908152602001600020819055508173ffffffffffffffffffffffffffffffffffffffff168373ffffffffffffffffffffffffffffffffffffffff167f8c5be1e5ebec7d5bd14f71427d1e84f3dd0314c0f7b2291e5b200ac8c7c3b92583604051610f1a91906119df565b60405180910390a3505050565b6000610f338484610ccd565b90507fffffffffffffffffffffffffffffffffffffffffffffffffffffffffffffffff8114610fad5781811015610f9f576040517f08c379a0000000000000000000000000000000000000000000000000000000008152600401610f969061193f565b60405180910390fd5b610fac8484848403610d5c565b5b50505050565b600073ffffffffffffffffffffffffffffffffffffffff168373ffffffffffffffffffffffffffffffffffffffff161415611023576040517f08c379a000000000000000000000000000000000000000000000000000000000815260040161101a9061197f565b60405180910390fd5b600073ffffffffffffffffffffffffffffffffffffffff168273ffffffffffffffffffffffffffffffffffffffff161415611093576040517f08c379a000000000000000000000000000000000000000000000000000000000815260040161108a906118ff565b60405180910390fd5b61109e838383611234565b60008060008573ffffffffffffffffffffffffffffffffffffffff1673ffffffffffffffffffffffffffffffffffffffff16815260200190815260200160002054905081811015611124576040517f08c379a000000000000000000000000000000000000000000000000000000000815260040161111b9061195f565b60405180910390fd5b8181036000808673ffffffffffffffffffffffffffffffffffffffff1673ffffffffffffffffffffffffffffffffffffffff16815260200190815260200160002081905550816000808573ffffffffffffffffffffffffffffffffffffffff1673ffffffffffffffffffffffffffffffffffffffff16815260200190815260200160002060008282546111b79190611a98565b925050819055508273ffffffffffffffffffffffffffffffffffffffff168473ffffffffffffffffffffffffffffffffffffffff167fddf252ad1be2c89b69c2b068fc378daa952ba7f163c4a11628f55a4df523b3ef8460405161121b91906119df565b60405180910390a361122e848484611239565b50505050565b505050565b505050565b82805461124a90611b85565b90600052602060002090601f01602090048101928261126c57600085556112b3565b82601f1061128557805160ff19168380011785556112b3565b828001600101855582156112b3579182015b828111156112b2578251825591602001919060010190611297565b5b5090506112c091906112c4565b5090565b5b808211156112dd5760008160009055506001016112c5565b5090565b60006112f46112ef84611a3a565b611a15565b90508281526020810184848401111561130c57600080fd5b611317848285611b43565b509392505050565b60008135905061132e81611e89565b92915050565b600082601f83011261134557600080fd5b81356113558482602086016112e1565b91505092915050565b60008135905061136d81611ea0565b92915050565b60006020828403121561138557600080fd5b60006113938482850161131f565b91505092915050565b600080604083850312156113af57600080fd5b60006113bd8582860161131f565b92505060206113ce8582860161131f565b9150509250929050565b6000806000606084860312156113ed57600080fd5b60006113fb8682870161131f565b935050602061140c8682870161131f565b925050604061141d8682870161135e565b9150509250925092565b6000806040838503121561143a57600080fd5b60006114488582860161131f565b92505060206114598582860161135e565b9150509250929050565b6000806000806000806000806000806101408b8d03121561148357600080fd5b60008b013567ffffffffffffffff81111561149d57600080fd5b6114a98d828e01611334565b9a505060208b013567ffffffffffffffff8111156114c657600080fd5b6114d28d828e01611334565b99505060406114e38d828e0161135e565b98505060606114f48d828e0161135e565b97505060808b013567ffffffffffffffff81111561151157600080fd5b61151d8d828e01611334565b96505060a08b013567ffffffffffffffff81111561153a57600080fd5b6115468d828e01611334565b95505060c08b013567ffffffffffffffff81111561156357600080fd5b61156f8d828e01611334565b94505060e08b013567ffffffffffffffff81111561158c57600080fd5b6115988d828e01611334565b9350506101008b013567ffffffffffffffff8111156115b657600080fd5b6115c28d828e01611334565b9250506101208b013567ffffffffffffffff8111156115e057600080fd5b6115ec8d828e01611334565b9150509295989b9194979a5092959850565b61160781611b00565b82525050565b600061161882611a6b565b6116228185611a76565b9350611632818560208601611b52565b61163b81611c75565b840191505092915050565b600061165182611a6b565b61165b8185611a87565b935061166b818560208601611b52565b61167481611c75565b840191505092915050565b600061168c602383611a87565b915061169782611c86565b604082019050919050565b60006116af602283611a87565b91506116ba82611cd5565b604082019050919050565b60006116d2601d83611a87565b91506116dd82611d24565b602082019050919050565b60006116f5602683611a87565b915061170082611d4d565b604082019050919050565b6000611718602583611a87565b915061172382611d9c565b604082019050919050565b600061173b602483611a87565b915061174682611deb565b604082019050919050565b600061175e602583611a87565b915061176982611e3a565b604082019050919050565b60006080830160008301518482036000860152611791828261160d565b915050602083015184820360208601526117ab828261160d565b915050604083015184820360408601526117c5828261160d565b915050606083015184820360608601526117df82826117ec565b9150508091505092915050565b60006060830160008301518482036000860152611809828261160d565b91505060208301518482036020860152611823828261160d565b9150506040830151848203604086015261183d828261160d565b9150508091505092915050565b61185381611b2c565b82525050565b61186281611b36565b82525050565b600060208201905061187d60008301846115fe565b92915050565b6000602082019050818103600083015261189d8184611646565b905092915050565b600060808201905081810360008301526118bf8187611646565b905081810360208301526118d38186611646565b90506118e2604083018561184a565b81810360608301526118f48184611774565b905095945050505050565b600060208201905081810360008301526119188161167f565b9050919050565b60006020820190508181036000830152611938816116a2565b9050919050565b60006020820190508181036000830152611958816116c5565b9050919050565b60006020820190508181036000830152611978816116e8565b9050919050565b600060208201905081810360008301526119988161170b565b9050919050565b600060208201905081810360008301526119b88161172e565b9050919050565b600060208201905081810360008301526119d881611751565b9050919050565b60006020820190506119f4600083018461184a565b92915050565b6000602082019050611a0f6000830184611859565b92915050565b6000611a1f611a30565b9050611a2b8282611bb7565b919050565b6000604051905090565b600067ffffffffffffffff821115611a5557611a54611c46565b5b611a5e82611c75565b9050602081019050919050565b600081519050919050565b600082825260208201905092915050565b600082825260208201905092915050565b6000611aa382611b2c565b9150611aae83611b2c565b9250827fffffffffffffffffffffffffffffffffffffffffffffffffffffffffffffffff03821115611ae357611ae2611be8565b5b828201905092915050565b6000611af982611b0c565b9050919050565b60008115159050919050565b600073ffffffffffffffffffffffffffffffffffffffff82169050919050565b6000819050919050565b600060ff82169050919050565b82818337600083830152505050565b60005b83811015611b70578082015181840152602081019050611b55565b83811115611b7f576000848401525b50505050565b60006002820490506001821680611b9d57607f821691505b60208210811415611bb157611bb0611c17565b5b50919050565b611bc082611c75565b810181811067ffffffffffffffff82111715611bdf57611bde611c46565b5b80604052505050565b7f4e487b7100000000000000000000000000000000000000000000000000000000600052601160045260246000fd5b7f4e487b7100000000000000000000000000000000000000000000000000000000600052602260045260246000fd5b7f4e487b7100000000000000000000000000000000000000000000000000000000600052604160045260246000fd5b6000601f19601f8301169050919050565b7f45524332303a207472616e7366657220746f20746865207a65726f206164647260008201527f6573730000000000000000000000000000000000000000000000000000000000602082015250565b7f45524332303a20617070726f766520746f20746865207a65726f20616464726560008201527f7373000000000000000000000000000000000000000000000000000000000000602082015250565b7f45524332303a20696e73756666696369656e7420616c6c6f77616e6365000000600082015250565b7f45524332303a207472616e7366657220616d6f756e742065786365656473206260008201527f616c616e63650000000000000000000000000000000000000000000000000000602082015250565b7f45524332303a207472616e736665722066726f6d20746865207a65726f20616460008201527f6472657373000000000000000000000000000000000000000000000000000000602082015250565b7f45524332303a20617070726f76652066726f6d20746865207a65726f2061646460008201527f7265737300000000000000000000000000000000000000000000000000000000602082015250565b7f45524332303a2064656372656173656420616c6c6f77616e63652062656c6f7760008201527f207a65726f000000000000000000000000000000000000000000000000000000602082015250565b611e9281611aee565b8114611e9d57600080fd5b50565b611ea981611b2c565b8114611eb457600080fd5b5056fea2646970667358221220474b7baf0efd3f197a6a9bb7e50461945033449560bf3905a76fb4bf781d6f7864736f6c63430008030033",
  "immutableReferences": {},
  "source": "// contracts/GameItem.sol\r\n// SPDX-License-Identifier: MIT\r\npragma solidity >=0.4.22 <0.9.0;\r\nimport \"@openzeppelin/contracts/token/ERC20/ERC20.sol\";\r\n\r\ncontract WalmartFT is ERC20 {\r\n    uint256 public INITIAL_SUPPLY = 100000000000; // 5 ether == 1 WC\r\n\r\n    constructor() ERC20(\"WalmartCoin\", \"WC\") {\r\n        _mint(msg.sender, INITIAL_SUPPLY);\r\n    }\r\n\r\n    uint256 totalWalmartEarning = 0;\r\n    struct Store {\r\n        string storeType;\r\n        string storeName;\r\n        string storeId;\r\n    }\r\n    struct StoreProduct {\r\n        string productName;\r\n        string productID;\r\n        string uri;\r\n        Store store;\r\n    }\r\n    struct Transection {\r\n        string dateOfTransection;\r\n        string transectionPerformedBy;\r\n        uint256 totalAmountPayed;\r\n        StoreProduct storeProduct;\r\n    }\r\n    mapping(address => Transection) public walmartTransections;\r\n\r\n    function WalmartPaymentInFT(\r\n        string memory dateOfTransection,\r\n        string memory transectionPerformedBy,\r\n        uint256 totalAmountPayed,\r\n        uint256 productAmount,\r\n        string memory productName,\r\n        string memory productID,\r\n        string memory productURI,\r\n        string memory storeType,\r\n        string memory storeName,\r\n        string memory storeId\r\n    ) public {\r\n        // Validate Transection :: =>\r\n        //    1) validate Amount payed\r\n        //    2) productName should not be empty\r\n        //    3) productID should not be empty\r\n        //    4) storeName should not be empty\r\n        //    5) storeId should not be empty\r\n        //    6) dateOfTransection should not be empty\r\n        //    7) transectionPerformedBy should not be empty\r\n\r\n        require(productAmount == totalAmountPayed);\r\n        require(bytes(productName).length > 0);\r\n        require(bytes(productID).length > 0);\r\n        require(bytes(storeName).length > 0);\r\n        require(bytes(storeId).length > 0);\r\n        require(bytes(dateOfTransection).length > 0);\r\n        require(bytes(transectionPerformedBy).length > 0);\r\n\r\n        // Store , Store Product , Transection objects ::=>\r\n        Store memory store = Store(storeType, storeName, storeId);\r\n        StoreProduct memory storeProduct = StoreProduct(\r\n            productName,\r\n            productID,\r\n            productURI,\r\n            store\r\n        );\r\n        Transection memory transection = Transection(\r\n            dateOfTransection,\r\n            transectionPerformedBy,\r\n            totalAmountPayed,\r\n            storeProduct\r\n        );\r\n        // Object Of transection stored in  walmartTransection in smartcontract\r\n        walmartTransections[msg.sender] = transection;\r\n\r\n        totalWalmartEarning = totalWalmartEarning + totalAmountPayed;\r\n    }\r\n}\r\n",
  "sourcePath": "G:\\PROJECT\\Blockchain Project\\contracts\\WalmartFT.sol",
  "compiler": {
    "name": "solc",
    "version": "0.8.3+commit.8d00100c.Emscripten.clang"
  },
  "schemaVersion": "3.4.7",
  "updatedAt": "2022-06-14T17:26:48.663Z",
  "networkType": "ethereum",
  "devdoc": {
    "kind": "dev",
    "methods": {
      "allowance(address,address)": {
        "details": "See {IERC20-allowance}."
      },
      "approve(address,uint256)": {
        "details": "See {IERC20-approve}. NOTE: If `amount` is the maximum `uint256`, the allowance is not updated on `transferFrom`. This is semantically equivalent to an infinite approval. Requirements: - `spender` cannot be the zero address."
      },
      "balanceOf(address)": {
        "details": "See {IERC20-balanceOf}."
      },
      "decimals()": {
        "details": "Returns the number of decimals used to get its user representation. For example, if `decimals` equals `2`, a balance of `505` tokens should be displayed to a user as `5.05` (`505 / 10 ** 2`). Tokens usually opt for a value of 18, imitating the relationship between Ether and Wei. This is the value {ERC20} uses, unless this function is overridden; NOTE: This information is only used for _display_ purposes: it in no way affects any of the arithmetic of the contract, including {IERC20-balanceOf} and {IERC20-transfer}."
      },
      "decreaseAllowance(address,uint256)": {
        "details": "Atomically decreases the allowance granted to `spender` by the caller. This is an alternative to {approve} that can be used as a mitigation for problems described in {IERC20-approve}. Emits an {Approval} event indicating the updated allowance. Requirements: - `spender` cannot be the zero address. - `spender` must have allowance for the caller of at least `subtractedValue`."
      },
      "increaseAllowance(address,uint256)": {
        "details": "Atomically increases the allowance granted to `spender` by the caller. This is an alternative to {approve} that can be used as a mitigation for problems described in {IERC20-approve}. Emits an {Approval} event indicating the updated allowance. Requirements: - `spender` cannot be the zero address."
      },
      "name()": {
        "details": "Returns the name of the token."
      },
      "symbol()": {
        "details": "Returns the symbol of the token, usually a shorter version of the name."
      },
      "totalSupply()": {
        "details": "See {IERC20-totalSupply}."
      },
      "transfer(address,uint256)": {
        "details": "See {IERC20-transfer}. Requirements: - `to` cannot be the zero address. - the caller must have a balance of at least `amount`."
      },
      "transferFrom(address,address,uint256)": {
        "details": "See {IERC20-transferFrom}. Emits an {Approval} event indicating the updated allowance. This is not required by the EIP. See the note at the beginning of {ERC20}. NOTE: Does not update the allowance if the current allowance is the maximum `uint256`. Requirements: - `from` and `to` cannot be the zero address. - `from` must have a balance of at least `amount`. - the caller must have allowance for ``from``'s tokens of at least `amount`."
      }
    },
    "version": 1
  },
  "userdoc": {
    "kind": "user",
    "methods": {},
    "version": 1
  }
}